:020000041000EA
:10000000002008205D0100101301001015010010F0
:100010001101001011010010110100101101001058
:100020001101001011010010110100101701001042
:100030001101001011010010190100101B01001026
:100040001D0100101D0100101D0100101D010010F8
:100050001D0100101D0100101D0100101D010010E8
:100060001D0100101D0100101D0100101D010010D8
:100070001D0100101D0100101D0100101D010010C8
:100080001D0100101D0100101D0100101D010010B8
:100090001D0100101D0100101D0100101D010010A8
:1000A0001D0100101D0100101D0100101D01001098
:1000B0001D0100101D0100101D0100101D01001088
:1000C0001D0100101D0100101D0100101D01001078
:1000D0001D0100101D0100101D0100101D01001068
:1000E0001D0100101D0100101D0100101D01001058
:1000F0001D0100101D0100101D0100101D01001048
:100100001D0100101D0100101D0100101D01001037
:1001100000BE00BE00BE00BE00BE00BEEFF3058004
:10012000103800BEF2EB88710002001020020010AF
:10013000A801001090A31AE7D3DEFFFF42012110AF
:10014000FF010000C4DE0000793512AB4FF0000063
:100150002349086006C881F3088810474FF05040D3
:10016000006810B14FF00000F2E70FA40ECC002998
:1001700002D000F015F8F9E71A491B4A002000E008
:1001800001C19142FCD1002080F30A8817498847B9
:10019000174988471749884700BEFDE701C901C2D2
:1001A0009A42FBD3704700BF2002001010010020CC
:1001B00028A5002038A6001028A50020C0D50020C2
:1001C000D0D60010000008202C090820FCDF001009
:1001D00000100820001008200000000070470000F8
:1001E00008ED00E0C0D50020343F01205D5E002016
:0801F000951F0020555E002060
:0801F800EC9100100100000071
:10020000ECCB0020F8CB002004CC002010CC002048
:100210001CCC002028CC002034CC002080CD002035
:10022000F8B500BF064B0749C91A891048BF01310C
:10023000491003D0044B0BB101481847704700BF69
:10024000C0D50020C0D500200000000008B5054B37
:100250001BB105490548AFF30080BDE80840FFF732
:10026000E1BF00BF00000000D037012028A500201A
:100270002DE9F0471F4CA369D80631D44FF001098E
:10028000DFF880A01C4DDFF88080A369D906FCD47C
:100290002168BAF800302A880133C3F3080392B208
:1002A0009A42C9B21ED0BAF80020192092B208F8BA
:1002B0000210AAF8003049EC400003F0EBFA47F2D4
:1002C0003053C61841F10007002FBCBF4FF0FF3676
:1002D0006FF00047094AC2E90067A369DB06D4D57D
:1002E000BDE8F0870122064B1A70A369DA06CCD567
:1002F000BDE8F08700000740163F0120C8EC002051
:10030000303F0120143F0120F83C01202DE9F04747
:100310009A460F24904601EB810100EB01111D4D1F
:10032000C90801F5967E01F5167C00F0070055F826
:100330002130800055F82E7055F82C6004FA00F238
:100340004FEA8A0423EA020927EA020726EA02069C
:100350004FEA9A030AF00C0204F00C0408F0030AB6
:1003600044EA0A04844044EA090403F00C0345F813
:100370002140C8F38101C8F301180A4343EA080386
:10038000824083403A43334345F82E2045F82C30D1
:10039000BDE8F087F406012070B50126154D00E098
:1003A00020BF4FF00103D5E8CF4FC5E8423F002AF8
:1003B000F9D1E3B2002BF3D14FF416620E490F4886
:1003C00009F044FF4FF463620D490E4809F03EFF07
:1003D0004FF416620C490D4809F038FFC5E88F4FFD
:1003E0000B480C490C4A0D4B04700C7016701E70B3
:1003F00070BD00BF203F012020DF00207CFD0020D9
:10040000F406012024150120C0D5002018F4002096
:100410002D3F01202E3F012070CF00202B3F0120D7
:100420002DE9F04F0A21494899B008F099FB474857
:1004300008F0EAFB464D474CDFF83491A5F14F0A2E
:1004400003F054FE444803A903F0BEFA434B1B7863
:100450000BB1FFF7A1FF424B424A0DF10F0108E03B
:10046000207850B92020AB4201F8010F02F10102BF
:100470000AD013F8010F0028F2D11078AB4201F82E
:10048000010F02F10102F4D10026374F039A3946D9
:1004900032444FF42073CDF8009004A806F5A0660E
:1004A0007FF036FEB6F5706F07F59667EED12F48F0
:1004B00003A903F04BFA0127274803A903F084FAA4
:1004C0004FEA171C0CEB8C0212012648511E07F054
:1004D0000F0604AB09EB0626514402444FEA8C0890
:1004E00009E0207858B9202003F8010B18A8984299
:1004F00002F101020AD011F8010F0028F1D11078A1
:10050000013203F8010B18A89842F4D14FF0000B08
:10051000154BE04403EBC808039A41465A444FF494
:100520002073009604A80BF5A06B7FF0F1FDBBF5DE
:10053000706F08F59668EFD10C4803A9013703F0F6
:1005400005FAB7F5F07FB7D17AE700BF00EA0020DF
:1005500067F4002071CF002084EC00202D3F0120A3
:1005600017F400207CFD00202415012074EC0020ED
:10057000C02301202DE9F04F4FF0010283B000E0CD
:1005800020BF5149D1E8CF6FC1E8432F002BF9D1EB
:10059000F6B2002EF4D14FF4636231464B4809F0B5
:1005A000DDFD4B4A4B4B12781B78950003F003009E
:1005B000910805F00C0502F00C0201F00C01054356
:1005C000C3F38100C3F3011341EA030742EA0004C5
:1005D00020214FF41662404809F0C0FD4FF050084A
:1005E000334630463246BA4638494FEAD80720F0FB
:1005F0000F00284322F00F0223F00F03A7F10A0C8B
:1006000007F59176224343EA0A0341F82C0007F2EA
:100610004E2041F8203041F82620A8F14F000197E4
:10062000C60806F5167E51F82E7000F007030097F5
:100630000F279B0006F5967907FA03FC51F82970FD
:1006400051F8262027EA0C0B009F22EA0C0227EA29
:100650000C0705FA03FC42EA0C02013041F826209F
:1006600004FA03F20AFA03F342EA0B023B43804521
:1006700041F8292041F82E30D2D1B8F5166F019FEC
:100680000CD007F5967207F5167351F8270051F84C
:10069000222051F8233008F15008A6E742460021F5
:1006A0000E4809F05BFD00230D4A1360064AC2E8BC
:1006B0008F3F0C4B1A781AB901220B490A701A7035
:1006C00003B0BDE8F08F00BF203F0120F4060120F9
:1006D000223F01205CCF002020DF0020C0D5002079
:1006E000EC3C01202E3F01202D3F01202DE9F04F51
:1006F0004FF0010383B000E020BF6649D1E8CF6F1F
:10070000C1E8423F002AF9D1F6B2002EF4D1624985
:100710004FF41162A1F1500009F0A2FC5F494FF4BF
:100720001162A1F1500009F09BFC502220215C488D
:1007300009F014FD502231465A4809F00FFD5A497C
:100740004FF49162A1F1280009F08AFC57494FF457
:100750009162A1F1280009F083FC55494FF49162A0
:10076000A1F1280009F07CFC4FF00F0E514BF1086D
:1007700001F5917C01F24E2706F0070201F27A3171
:1007800053F82C5053F8274053F8210092000EFAEA
:1007900002F2013625EA020524EA020420EA0200F8
:1007A000502E43F82C5043F8274043F82100DED167
:1007B0004FF0000C4FF00F0A3F49404A0978127879
:1007C0004FEA810902F0030009F00C094FEA910891
:1007D00049EA000901F00C01C2F3810008F00C089D
:1007E00041EA0007C2F3011248EA020801974FEA02
:1007F000DC0000F5917E0CF00702920053F82E50B9
:100800000AFA02F125EA010509FA02FB00F24E2676
:1008100045EA0B0500F27A3053F8264053F8207071
:1008200043F82E50019D24EA010495400CF1010C7F
:1008300027EA010108FA02F22C431143BCF1500FE0
:1008400043F8264043F82010D1D10023114AC2E8D2
:100850008F3F01231A4C2370237813B9194B1B784F
:1008600073B1194B1A7832B1FFF796FD002323704C
:1008700003B0BDE8F08F012214490A701A70F3E743
:10088000134B1B79002BF3D00F4B1A78002AEBD1B6
:10089000F1E700BF203F012070DF002010D60020CC
:1008A00030E80020D0DE00201C070120CC0B012006
:1008B0007C100120F4060120223F01205CCF0020A3
:1008C0001F3F0120233F01202E3F01202D3F01200B
:1008D000EC3C01202DE9F04F413A83B0342A27D86F
:1008E000DFE802F0353C434A2626265026601B26C8
:1008F0002626262626262626262626262626262698
:100900002626262626262626262626262626262687
:100910006A2626262626A9262900804B1C884F2CCD
:1009200003D85D881D2D40F2998001227C4B1A70FE
:1009300003B0BDE8F08F7B4B1B68581CF8D07A4A97
:100940001268511CF4D075490B804A80F0E7734A55
:100950005388002BECD0013B5380E9E76F4A538862
:100960001C2BE5D801335380E2E76C4A13884E2BE9
:10097000DED801331380DBE7684A1388002BD7D019
:10098000013B0DE00029D3D003780BB1013B9BB2B2
:10099000624A01295380CBD043780BB1013B9BB213
:1009A0001380C5E70129C3D10378022BC0D103B05E
:1009B000BDE8F04FFFF7DEBD0029B9D000244FF0AD
:1009C00001084FF03F0E554A584EDFF878C1584D98
:1009D000584F014410F8013B2F2B1BD8DFE803F0E0
:1009E000371A1A1A1A181A1A1A1A1A1A1A1A1A1A4C
:1009F0001A1A1A1A1A1A1A1A1A331A1A1A1A24242A
:100A00002424242424241A1A1D1D1D1D1D1D1D1DF2
:100A100082F80A808142DDD18AE7634413F8283CDA
:100A200081423370D6D183E73B4413F81E3C8142A8
:100A30002B70CFD17CE7394B3A4918883A4A5B880A
:100A40000860136074E781429472C3D170E78142F9
:100A500085F800E034709472BCD169E74FF00F0A5A
:100A6000324B334A93F80080334805EB8503C4F1D9
:100A7000500704EB0314167820213A46204409F06D
:100A80006DFB2E483A4600214FEA8809204409F0C0
:100A900065FB09F00C0906F003014FEA98030135E4
:100AA00003F00C0349EA0109C6F38101C6F30116FC
:100AB00005EB850508F00C083343214A2F0148EA6D
:100AC00001080193E60804F0070306F5967B06F596
:100AD000167E9B0052F8265052F82B0052F82E102A
:100AE0000AFA03FC25EA0C0520EA0C0021EA0C01B5
:100AF00009FA03FC45EA0C0542F8265008FA03F50A
:100B0000284342F82B000198013400FA03F31943FB
:100B1000A74242F82E10D5D107E700BFEC3C0120D8
:100B20001F3F01206CCF002068CF0020223F012012
:100B30005CCF0020C4BB002020DF0020C0D50020F7
:100B4000F4060120C4BB00209E4A2DE9F04F5688D0
:100B50000122112E28BF11269B4B8DB01A809B4B72
:100B600006EB860206911E8099499A4B4FEA021ABB
:100B70000AF1050202900A4403F5CC7052F8041CF5
:100B80005032196052F8501C223343F81E1C52F8A0
:100B90004C1C984243F81A1C52F8481C43F8161C87
:100BA00052F8441C43F8121C52F8401C43F80E1C27
:100BB00052F83C1C43F80A1C52F8381C43F8061C37
:100BC00032F8341C23F8021CD8D13146824B834AB8
:100BD000DFF818B2AAEB030E03F1210703F2B919EB
:100BE0009446A7F122040EF10208019208EB0405D5
:100BF000EB0803F516725BF8220005F0070503F514
:100C00009672AD005BF82220E8405BF82330C0B25A
:100C1000EA40EB408600C2F3810500F00C0005437A
:100C2000C3F3810006F00C0602F0030240EA8500DF
:100C3000324304F8010F03F0030343EA8203BC428A
:100C40000CF8013FD2D1019A04F122074F4502F17D
:100C500022020EF12E0EC3D15D480AF10207B946F9
:100C600000244FF02B0807460E465D4D0AF10103A4
:100C700020222D21484407F80380EC5409F06EFA35
:100C800005EB09002022214609F068FA06F10A0363
:100C90009BB203EB83034FEA0319731C02363746FA
:100CA0007C2007969EB206EB86064FEA061C484E4D
:100CB000BBB20AF1210706F80780EC550CF10107D9
:100CC000F055EC55374603EB83031B010CF1210C67
:100CD00006F80C005E1C05F80C40B855AC5503F145
:100CE0002106B855AC5503F15106B855AC5503F182
:100CF0007106B855AC5503F1A106B855AC5503F1D2
:100D0000C106B855AC5503F1F106B855AC5503F220
:100D10001116B855AC5503F24116B855AC5503F24F
:100D20006116B855AC5503F29116B855AC5503F29F
:100D3000B116B855AC5503F2E116B855AC5503F2EF
:100D40000126B855AC5503F23126B855AC5503F21F
:100D50005126B855AC5503F28126B855AC5503F26F
:100D6000A12309F10206F854EC54202209F10103F1
:100D70002D21B81907F80380EC5409F0EFF9A819F0
:100D80002022214609F0EAF9164B09F121091978C8
:100D9000154B05F809401E78C1F3810306F00C02DB
:100DA00013435544059301F00303039307F80980A7
:100DB00005F152030AF15208CDE9085A0191B844ED
:100DC000049358E0EC3C0120103F0120123F012029
:100DD00020DF0020B039012018380120473B0120D6
:100DE000C0D500205CCF0020223F0120F406012066
:100DF0004F2B3DD84FF000010198029AC0F3011A21
:100E00000F20125DC44B88F80020049AA8EB030C55
:100E10001155039AB10001F00C010CF007031143C6
:100E20004FEADC0CB2089B005BF82C7002F00C025D
:100E300042EA0A0200FA03FA994027EA0A0739430C
:100E40004BF82C1005990CF596790CF5167E5BF88D
:100E500029509A4001FA03F35BF82E1025EA0A059F
:100E600021EA0A002B4302434BF829304BF82E208D
:100E7000013408F10108029809F05EFAA04204F179
:100E80000203B5D8BDF81C3003EB83031B01DE1C45
:100E9000082335460593AA46059B0795083B029310
:100EA0009E4B2B4401939E4B2B440393029D0421A4
:100EB0002B469C4A0BA805F00FF84FF000010F24B9
:100EC000BDF82C30019A0AF1FF375380039B4FEA9B
:100ED000D70C5980EEB20CF596780CF5167EA90069
:100EE00007F0070701355BF828005BF82E30BF00DC
:100EF000029506F00C02350901F00C015BF82C603C
:100F000004FA07F941F0030126EA090620EA09007C
:100F100023EA090301FA07F942F0030246EA090647
:100F20004BF82C6002FA07F64FEADA0C3043AD00BA
:100F30004BF8280045F003050AF007000CF59678F9
:100F40005BF82860800005FA07F704FA00F93B43D4
:100F50005BF82C7026EA0906049627EA090701FACD
:100F600000F63743049E4BF82C7002FA00F73E431C
:100F70004BF828606FF024064BF82E300CF5167EE7
:100F80005BF82E3005FA00F023EA090949EA00006F
:100F90004BF82E0001980AF1010300F8046F4FF09E
:100FA0000006019003980AF1040A00F8046FDE08B5
:100FB00003F007039B0003905BF826009C409940D8
:100FC00006F5967720EA040008435BF827109A405C
:100FD00021EA040105FA03F306F5167511435BF8DF
:100FE00025204BF8260022EA04021A434BF825205C
:100FF0004BF82710059B029DAB427FF457AF083397
:10100000079D482B059305F150057FF444AFDDE9BA
:10101000085A454B454A1B78167819463E4A0AF24B
:101020002238904405F2223201930392C3F38103E4
:1010300006F00C021343049301F00303002402930F
:1010400042E04F2B3DD84FF000010198069AC0F3C3
:10105000011A0F20125D304B88F80020039AA8EB8C
:10106000030C1155029AB10001F00C010CF00703BA
:1010700011434FEADC0CB2089B005BF82C7002F0C5
:101080000C0242EA0A0200FA03FA994027EA0A0728
:1010900039434BF82C1004990CF596790CF5167E13
:1010A0005BF829509A4001FA03F35BF82E1025EA09
:1010B0000A0521EA0A002B4302434BF829304BF87A
:1010C0002E20013408F10108069809F035F9A042F4
:1010D00004F10203B5D80123154C2370237813B90A
:1010E000144B1B7873B1144B1A7832B1FFF754F9D3
:1010F000002323700DB0BDE8F08F01220F490A7064
:101100001A70F3E70E4B1B79002BF3D00A4B1A78B9
:10111000002AEBD1F1E700BF20DF00201DDF002017
:10112000BDD5002054B800205CCF0020223F012014
:101130001F3F0120233F01202E3F01202D3F012092
:10114000EC3C0120704A2DE9F04F704B158818884F
:101150006F49704B05EB85042401A6462F4685B0E8
:10116000C0F1000CA3EB0008214405F10C0600F1CE
:10117000220206E00137B74208F1220801F15001CE
:1011800012D01D2FF6DC03464F2B03DC18F803901A
:1011900001F8039001339A42F6D10137B74208F1C2
:1011A000220801F15001ECD1DFF88C912F4609F1B2
:1011B000220101444FF00008214406E00137B74204
:1011C00001F150010EF1500E14D01D2FF6DCA1F1EB
:1011D00022030EEB09041A1B4F2A01DC83F800805E
:1011E00001339942F7D10137B74201F150010EF1B5
:1011F000500EEAD1484B494F494C0CEB030B674466
:1012000000F1220E039006E00135B5420BF1220BEE
:1012100007F1220757D01D2DF6DC05EB85021201E0
:10122000CDE90025039B02964F2B40DCFD5C1BF8AB
:1012300003104FEA850C0CF00C0C01F003094CEA8A
:1012400009094FF00F0C009A03F007009A18D20812
:1012500054F8226080000CFA00FC09FA00F926EA32
:101260000C0602F5967849EA060644F8226054F81E
:10127000286002F5167226EA0C0A54F8226005F07E
:101280000C09AD0805F00C0526EA0C06C1F3810C2B
:10129000C1F30111294349EA0C0C0CFA00FC81400E
:1012A0004CEA0A05314344F8285044F8221001332F
:1012B0007345B9D1DDE901560135B5420BF1220B79
:1012C00007F12207A7D10123164C2370237813B905
:1012D000154B1B7873B1154B1A7832B1FFF75CF8D8
:1012E0000023237005B0BDE8F08F012210490A7079
:1012F0001A70F3E70F4B1B79002BF3D00B4B1A78C6
:10130000002AEBD1F1E700BF123F0120103F01207E
:1013100020DF0020B0390120483B0120183801208F
:10132000F40601201F3F0120233F01202E3F012012
:101330002D3F0120EC3C0120C0D50020DE4B0122D6
:101340005B882DE9F04F102B28BF10231E46DB4B86
:1013500091B01A80DA4BDFF890830DF1200E1E80D9
:1013600006EB86031D01B8E80F00AEE80F0098E811
:101370000F008EE80F00D34CDFF870A36F1D5744A9
:1013800004F5CC7C57F8043C5037236057F8503CA8
:10139000223444F81E3C57F84C3C644544F81A3C4F
:1013A00057F8483C44F8163C57F8443C44F8123C83
:1013B00057F8403C44F80E3C57F83C3C44F80A3C93
:1013C00057F8383C44F8063C37F8343C24F8023CE3
:1013D000D8D1BD4A29461046BC4BDFF814B3A5EB63
:1013E000030E03F1210703F2B91902968446A7F10F
:1013F00022040EF10208CDF804E008EB0406F3081D
:1014000003F516725BF8225006F0070603F5967294
:10141000B6005BF82220F5405BF82330EDB2F240D5
:10142000F3404FEA850EC2F3810605F00C052E430A
:10143000C3F381050EF00C0E02F0030245EA8605A7
:101440004EEA020204F8015F03F0030343EA820359
:10145000BC420CF8013FD0D1DDF804E004F12207D2
:10146000B94500F122000EF12E0EBFD14FF02B0E28
:1014700000240D46F146964F01F102084B1C202234
:101480002D210AEB08000AF803E0029EFC5408F044
:1014900065FE07EB08002022214608F05FFE7C2055
:1014A000213506F1010C0AF805907C55B31C06F1B4
:1014B00009051FFA8CF606EB860636019BB206F18B
:1014C000010C03EB83030AF80C0007F80C401B0126
:1014D00006F1210C0AF80C0007F80C4003F1010C8E
:1014E0000AF80C0007F80C4003F1210C0AF80C0074
:1014F00007F80C4003F1510C0AF80C0007F80C40F7
:1015000003F1710C0AF80C0007F80C4003F1A10C70
:101510000AF80C0007F80C4003F1C10C0AF80C00A3
:1015200007F80C4003F1F10C0AF80C0007F80C4026
:1015300003F2111C0AF80C0007F80C4003F2411CDE
:101540000AF80C0007F80C40ADB203F2611C0AF86F
:101550000C0007F80C4005EB850503F2911C0AF816
:101560000C0007F80C402D0103F2B11C05F1020834
:101570000AF80C0007F80C4003F2E11C03F2012307
:101580000AF80C0007F80C4020220AF803002D216D
:10159000FC540AEB08006B1C0AF80390FC5408F09A
:1015A000DDFD384620222146404408F0D7FD4FF0AB
:1015B0002B0E484B21351978474B7C5593F80090FA
:1015C0000AF805E0B51C07AEC8463746C1F38103EB
:1015D00009F00C021343059301F0030304910393F4
:1015E00057F8043F1846019308F0A6FE002852D091
:1015F000019B01381A182846CDE9067502925E1E35
:101600003146039C019D4FEA880200F0070302F077
:101610000C02033122439B00491BC70802FA03F462
:101620004F294FEA980207F5967E07F5167C02F0DF
:101630000C0206F1010628D84FF0000531780AF8AF
:10164000001023490D5404995BF82750C1F3011988
:10165000059942EA090201FA03F90F219A4001FAB9
:1016600003F35BF82E1025EA0305254321EA030462
:101670005BF82C1049EA040421EA03010A434BF801
:1016800027504BF82E404BF82C20029B01309E42F5
:10169000B6D1DDE906750FABBB4205F150059FD110
:1016A00001230E4C2370237813B90D4B1B7873B3B1
:1016B0000C4B1A781EE000BFEC3C0120103F0120CB
:1016C000123F0120B0390120473B0120183801208A
:1016D000C0D500205CCF0020223F01201F3F012009
:1016E000233F01202E3F0120CCCB002020DF002013
:1016F000F406012032B1FEF74FFE0023237011B033
:10170000BDE8F08F012206490A701A70F3E7054B15
:101710001B79002BF3D0044B1A78002AEBD1F1E7A8
:101720002D3F0120EC3C01202E3F012001222DE91C
:10173000F04FAF4B89B004461A7002F0ABF8DFF8F7
:1017400008B3AC4A9BF80030C2E900014BB1AA4B88
:101750001B684F2B59D900220123A84D8BF800207C
:101760002B70A74F7B7A002B40D00D2C00F0C88047
:101770000022FB797A72002B00F0BB800A2C00F06B
:1017800016813B7A002B00F015810023FB710023AA
:101790003B727D79002D00F092805B2C00F0FD8083
:1017A000BB79002B00F0D480964DA4F13003092BB7
:1017B0002A7840F215810023934E94483B2C3178CF
:1017C000835400F071834AB1032907D808F03AF82E
:1017D00033788F4AD0540133D9B2317022468C48C5
:1017E000FFF778F80023A7F805308BE0FB79002B92
:1017F0005ED00A2C00F0DB803B7A002B00F0DA8010
:101800000D2CC2D100233B727CE0824A12681D2A53
:10181000A1D800204FF00F0EDFF8308202EB8202D9
:1018200003EB02137C4E98F800207C4DF2547C4A66
:101830007C49127895F800C07B4DDE08C8549000B2
:10184000910803F0070302F00C029B00009255F888
:1018500026200EFA03FE06F5967822EA0E0955F8C0
:10186000282006F5167722EA0E0A55F8272000F000
:101870000C0022EA0E0E0CF003021043984040EADE
:101880000900009A01F00C0145F82600CCF3810014
:10189000CCF3011C024341EA0C019A40994042EA10
:1018A0000A0241EA0E0145F8282045F8271052E7C0
:1018B0003B7A002B3FF46DAF0D2C1ED1A2E75B4E9F
:1018C000337803F0FF0803BB594D2B78002B41D12F
:1018D000DFF87C8198F80030002B6ED0313C052C6D
:1018E00010D8DFE814F0200213022402220228029A
:1018F00026023B7A002B3FF44CAF00233B7248E7B3
:1019000000237B7209B0BDE8F08FA4F13003092BEE
:1019100000F2A080474F3B78012BF3D85A1CD2B27B
:101920004549022A3A70CC54ECD10A784B78303AC7
:1019300002EB8202303B03EB4203DBB23F2B9CBF46
:101940003E4A1370FFF7FEFB002333703B70D9E76C
:101950007B71D7E7A4F13003092B00F28E80354F5D
:101960003B78012BCED85A1CD2B23349022A3A70A6
:10197000CC54C7D10A784B78303A02EB8202303B24
:1019800003EB4203DBB23F2B9CBF254A1370FFF7EA
:10199000D9FB00232B703B70B4E7002301201A49C8
:1019A000184A274CB87123700B701370AAE70023F4
:1019B000FB71A7E70023FB71EBE6224B1A78002AA4
:1019C00068D0303C092C9DD8DFE814F0DF01D60147
:1019D000F701F401F101EE01EB01E801E501E2019B
:1019E0000E2A8FD8094B511C29709C548AE700BFDE
:1019F000263F0120C0EC002064CF00201F3F0120C3
:101A0000EC3C01201B3F01201D3F012004F400207D
:101A100014F4002060CF002020DF00202C3F0120A4
:101A2000223F0120C0D50020F4060120253F0120DF
:101A30001E3F0120213F0120F00601205CCF002045
:101A40001C3F01202F3F0120233F01205ECF0020BB
:101A5000243F0120082C08D01B2C7FF453AFFFF744
:101A600071FBB64B35701D704CE7B44A1378002BF0
:101A70003FF448AF013B137044E7082CF5D01B2C12
:101A80007FF440AFFFF75EFBAC4B85F8008083F836
:101A9000008037E7A21E192A1BD8DFE812F0910157
:101AA0001A001A001A00A9011A00A3011A00E40181
:101AB0001A001A00C201BB011A001A001A001A000B
:101AC0001A00B7011A001A001A001A001A001A00A8
:101AD0009F013B887A884F2B5ED81D2A5CD84FF037
:101AE0000F0E9749974E0878974991F800A002EB9E
:101AF000820103EB01114FEAD10909F596750195B1
:101B000009F516750095850005F00C050295850808
:101B100000F00C00049001F0070C05F00C004FEAF7
:101B20008C0C069009F5967556F8290056F8255044
:101B30000EFA0CFE20EA0E00039025EA0E0009F5CD
:101B4000167556F825500590029825EA0E0E0AF0F3
:101B500003050543039805FA0CF5054346F829509B
:101B6000049DCAF381002843069DCAF3011A45EA81
:101B70000A0A059D00FA0CF02843019D0AFA0CFAA6
:101B800046F82500009D4AEA0E0046F825006F4EF3
:101B90006F487454BC7A4454012101339BB26D4D9B
:101BA0004F2B3B80297000F223823B79002B00F001
:101BB000868198F8003003F0FF01002B40F0898106
:101BC0009BF80030002B40F08681634B634A5F4EE8
:101BD000DFF89C8139887888196000EB80031060F9
:101BE00006EB0312525C4F2988F800204FEA0313DA
:101BF0007BD81D2879D85A1801F007030F21514FBF
:101C00004FEAD20C0CF596799B0057F82940994081
:101C10000CF5167824EA01044948069457F8284040
:101C200090F800E04E4824EA0104009207940278FC
:101C30004FEA8E0404F00C04039404920EF00C029C
:101C400057F82C000292039A4FEA9E0420EA010002
:101C500002FA03FE04F00C04029A40EA0E0001941A
:101C600002FA03FA0590019A0698C94340EA0A0A63
:101C700002FA03F0079A344C1043049A2478052A98
:101C80008CBF4FF0200EDFF8ECE000EA010098BFB7
:101C90001EF802E0009A06F802E001EA0A064FF098
:101CA000000A059A01EA020E039A04F003011143A7
:101CB0009940029A41EA0E0147F82C10C4F3810CB6
:101CC0004CEA020C019AC4F3011111430CFA03FC13
:101CD00001FA03F30343009A47F828301C4B4CEAFF
:101CE000060647F8296003F802A001232B702A7822
:101CF0008BF800301B4B1A781AB901221A490A7066
:101D00001A70FEF749FB00232B70FBE5012300242A
:101D1000134A88F800401370FFF714FA0123134A9E
:101D20003B711460EEE50023F1E70323EFE70223A4
:101D3000EDE70523EBE70423E9E700BF213F01209E
:101D4000223F0120F40601205CCF002020DF00208C
:101D5000C0D500201F3F012064CF002060CF0020AD
:101D60005DCF00202E3F01202D3F01207C2301204C
:101D70005ECF0020BCBB00203C2400200022AC49E8
:101D80001A700C70AB490870BCE50C240020F5E714
:101D900030241520F2E70F240020EFE72A2400204A
:101DA000ECE733240020E9E73C240320E6E70B249A
:101DB0000320E3E700243F20E0E73F240320DDE7A2
:101DC000002301219C489D4A297003709C499D482D
:101DD000138093709C4DFEF7B7FEE6E601239A4D03
:101DE0007B71E2E63B88002B40F0E380964DDCE619
:101DF000002301219048914A037031709348904923
:101E000013809370904DFEF79FFECEE601228E4D1B
:101E10001A70CAE601238C4D88F80030FFF78EFA5D
:101E2000C3E600227B883A8001339BB21D2B00F26F
:101E3000FA807B800123844D2B702B7823B99BF88B
:101E400000300BB93B7953B1814B1A781AB9012292
:101E500080490A701A70FEF79FFA00232B70012345
:101E6000FB717B72A1E600227B883A8001339BB232
:101E70001D2B00F2D3807B800123734D2B702B78B8
:101E800023B99BF800300BB93B7953B1704B1A78EA
:101E90001AB901226F490A701A70FEF77DFA002301
:101EA0002B7001233B7280E603293FF62CAF07F02D
:101EB000C9FC3378684AD0540133337023E72B7858
:101EC000002B7FF417AF9BF80030002B7FF412AF8C
:101ED00018E52B780EE7614B18684F283FF676AE71
:101EE0005F4A14681D2C3FF672AE4FF00F0804EBEA
:101EF000840400EB04105B4E4E4C4FEAD00996F878
:101F000000A0247809F59676019609F516760096D4
:101F1000A60006F00C06DFF858C10296A60804F0E9
:101F20000C04049400F0070E06F00C044FEA8E0E29
:101F3000069409F596765CF829405CF8266008FA64
:101F40000EF824EA0804039426EA080409F5167634
:101F50005CF82660059426EA08040794029C0AF0BF
:101F600003062643039C06FA0EF626434CF8296026
:101F7000049ECAF381043443069ECAF3011A46EA5A
:101F80000A0A059E04FA0EF43443019EDFF8E48049
:101F90004CF82640079C009E0AFA0EFA4AEA04040E
:101FA0004CF8264098F800402F4E34542F4C2154C2
:101FB00010E6013B98B24F28388015D879881D2942
:101FC00012D850254FF0200E4FF0000C05FB0105F4
:101FD000184B174A244E254C1B78127806F805E05A
:101FE00004F805C0FEF792F90123174D2B70DCE5CC
:101FF000531800229BB21D2B3A8049D87B800123C5
:102000002B702B78002B37D19BF80030A3BB3B798A
:1020100093BB2B78002B7FF46DAE73E41D237B8084
:10202000FEF764FB28E71D237B80FEF75FFB01E7DB
:102030005CCF0020223F0120213F0120F00601203B
:102040005CB8002090B800201F3F012078B8002025
:102050002E3F01202D3F012014F4002064CF0020EA
:1020600060CF00202C3F012020DF0020C0D50020C1
:10207000F40601205ECF0020084B1A781AB901221D
:1020800007490A701A70FEF787F900232B708CE558
:102090001D237B80FEF72AFBB1E700BF2E3F012006
:1020A0002D3F01202DE9F04F0D208FB0084D01F09C
:1020B000FBFF0A2001F0FCFAAC6A0DAB20460CAA2B
:1020C0000BA901F0DDFE38B92146024800F0A8FC5A
:1020D00028B80020A8B80020DDE90C120B9801F008
:1020E0000DFE04F0A9FA192000F076FC0126192350
:1020F00046EC443046EC4030254C4FF4E13120466C
:1021000001F0A8FC0221304600F038FC226B214F80
:1021100002F44042002320463A630821324601F08F
:102120001BFD2046002101F04FFD21201A4900F03F
:10213000A9FD3146212000F063FD5023A363636BAA
:10214000164803F038037B632422002140F8405BEB
:1021500008F004F80C23114C114A1221E263E364E5
:1021600010220E230220C4E91412A3656664A06441
:1021700000F0F6FC044600F0F3FC21460246074856
:1021800006F032FC074B084F03F5805C0EE000BF01
:1021900000000740001007406101002000EA002015
:1021A00000002050CCBB0020BF2301201E7893F8F4
:1021B00001E01879320142EA16124FEA0E1646EA99
:1021C0001E164FEA001E4EEA101E50B28000C2F3E7
:1021D00085029D7820F0330002F03302024370B292
:1021E0004FEA0518C6F385068000DC7848EA151822
:1021F00020F0330006F0330606434FFA88F025013D
:10220000C8F38508800045EA141520F0330008F073
:10221000330848EA000868B28000C5F3850559799B
:1022200020F0330005F0330505434FFA8EF00C0122
:10223000CEF3850E800044EA111420F033000EF036
:10224000330E4EEA000E60B29979C4F38504800023
:1022500020F0330004F033040443080140EA111075
:1022600041B28900C0F3850021F0330100F0330052
:10227000084351B293F80790C2F34602490021F097
:10228000550102F055020A434FEA091141EA1911BA
:102290004FFA81F94FFA88FAC1F385014FEA8909AB
:1022A00029F0330901F03301C8F346084FEA4A0A1E
:1022B00041EA09012AF0550A4FFA86F908F0550853
:1022C00007F8012F48EA0A08C6F346064FEA49090B
:1022D00006F0550629F0550987F8008293F8098021
:1022E00046EA09026EB27600C5F3460587F800217A
:1022F0004FEA081226F0550642EA181205F0550575
:1023000093F8089035434FFA82F887F80053C2F3E8
:1023100085029D7A4FEA88084FEA091628F03308AB
:1023200002F0330242EA080246EA19164FEA05189B
:102330004FFA86F948EA15184FFA88F5C6F385066C
:102340004FEA890929F0330906F03306C8F38508F6
:10235000AD0046EA090625F033054FFA8EF908F07C
:10236000330848EA0508CEF3460E45B24FEA49095C
:1023700029F055090EF0550EC0F346006D004EEAE7
:10238000090E4FFA84FA93F80B9025F0550500F0EA
:1023900055002843C4F346044FEA4A0A2AF0550A76
:1023A0004FEA091504F0550487F80006187B44EA43
:1023B0000A0445EA19154FFA85F94FFA81FA87F8A8
:1023C0000045040144EA1014C5F385054FEA890964
:1023D000C1F346014FEA4A0A29F0330901F05501D9
:1023E0002AF0550A60B205F0330545EA0905C4F341
:1023F000850441EA0A098000597B20F0330004F08B
:1024000033040443080140EA111041B28900C0F3CB
:10241000850021F0330100F03300084351B287F802
:1024200000E4C2F3460293F80EE0490021F05501A2
:1024300002F055020A434FEA0E1141EA1E114FFA0B
:1024400081FE4FEA8E0EC1F385012EF0330E01F0AE
:10245000330141EA0E014FFA88FE4FEA4E0EC8F3EF
:1024600046082EF0550E08F0550848EA0E0893F875
:102470000FE087F800294FEA0E1242EA1E124FFAC7
:1024800086FB4FFA82FE4FFA85FAC6F346064FEAFC
:102490004B0BC2F385024FEA8E0E2EF0330E06F080
:1024A00055062BF0550BC5F346054FEA4A0A02F0D4
:1024B000330242EA0E0246EA0B062AF0550A05F0FC
:1024C000550545EA0A054FFA81FE4FFA80FA87F86A
:1024D000009787F800684FFA82F966B27600C4F375
:1024E0004604C0F346004FEA4A0AC1F346014FEAE8
:1024F0004E0EC2F346024FEA490904F0550426F095
:10250000550600F055002AF0550A01F055012EF04D
:10251000550E02F0550229F05509103342EA09021E
:10252000344340EA0A0041EA0E019C4587F8008ADC
:1025300087F8005B87F8004C87F8000D87F8001ECD
:1025400087F8002F7FF432AE4FF000080124AD4B26
:10255000DFF82093C3F80080AB4BDFF81CA3C3E97E
:102560000088C3F808801C71A84BDFF810B3C3F8CB
:102570000080A74BC3F80080A64BC3F80080FDF78E
:10258000F9FFFDF709FF1022A34BA4481A6006F0DB
:1025900009FAA34B21464FF47A70C3F8008001F08A
:1025A000AFFD01F0A3FD9F4B9F4CC3F8008001F0ED
:1025B00071F90190029101F06DF90E46009001F061
:1025C00095FD914B1B790393002B00F08980974B6D
:1025D0001A7802F0FF03002A40F0828091490A68CD
:1025E00001320A600A68312A7AD9914A0B6012785E
:1025F000002A00F04581854A12684F2A5FD8844935
:1026000009681D295BD80F2501EB810102EB011C34
:10261000884A894802F80C30884A4FEADC0190F871
:1026200000E0127801F5967001F5167703900CF032
:10263000070004978700900000F00C0005909008B8
:1026400002F00C02079200F00C027D48BD4050F8E9
:102650002100099220EA05027948069201F5967256
:1026600050F8220020EA05027548089201F516721A
:1026700050F822000EF0030220EA050505980243F7
:102680000698BA4002436E4840F8212007990998FD
:10269000CEF381020A43CEF301110143BA40B9409F
:1026A000089F03983A43664F294347F82020049A2D
:1026B00047F82210634A6449127801F80C205C4AFA
:1026C000624913700123624A137012780A7812B9B2
:1026D000604A13700B70FDF75FFE5D4B83F800805E
:1026E0005D4B5E4A9B6A12689B1A5D4A934267D8AB
:1026F0002288B9F8003092B29BB29A4229D0009D4C
:1027000023889BB21AF8030023880133C3F308031C
:102710002380FFF70BF89BF8003093B1B9F8003035
:1027200022889BB292B29B1A03F500735A42C2F3FD
:102730000802C3F3080358BF5342802BC8BF8BF86D
:1027400000802288B9F8003092B29BB29A42D7D169
:102750000095DDE90023D01A029B66EB0301414B93
:10276000834278EB010302DA3F4B83F800803F4B52
:10277000394FD3E900237D6AAB420AD8D7F828C085
:10278000944501D2AB4204D019234FF0000242EC31
:1027900040302288B9F8003092B29BB29A4203D0FE
:1027A000009BCDE9013606E742F21073984271F1C1
:1027B0000002F5DA181A61EB410101F075F8EFE754
:1027C00001222B490B7853400B70234B23499B6A02
:1027D0000B601F4B1A701B7833B9154B1B781BB954
:1027E000094B1B79002B83D0184A13781BB901239E
:1027F00018490B701370FDF7CFFD154B83F800805F
:1028000076E700BF6CCF0020EC3C012064CF0020B5
:1028100060CF002068CF0020008006401103002018
:1028200000800D407C230120163F0120243F012021
:10283000233F0120C0D500202C3F0120223F012052
:10284000F40601205ECF002020DF00202E3F012073
:102850001F3F01202D3F012000000B4078FD00208C
:102860001FA10700A0860100263F0120C8EC002020
:1028700071CF0020143F0120F83C0120303F01209F
:10288000324B334958881B8808601D463149324F06
:1028900000EB800C03EB0C1C0B600CF0070E2F49B7
:1028A00004904FEADC0017F80CC02D4F059300F59B
:1028B000167351F8233087F800C000F5967C4FEA74
:1028C0008E0E51F82CC051F8200023FA0EF39B0015
:1028D0002CFA0EFC03F00C0320FA0EF00CF0030CA3
:1028E00043EA0C0C1F4900F0030343EA8C034F2D0D
:1028F0000B7028D804991D2925D84FF0500C0CFBDB
:10290000015728464FF0200C3D46174B0697124FB3
:102910001B7807F805C0FDF7F9FC144A0E4D107836
:10292000114B05288CBF20201149124A98BF085C22
:1029300006991278685410481B7800F80180DDE988
:102940000410FDF7E3FC039BB9E600BFEC3C01205B
:1029500060CF002064CF002020DF0020F40601209B
:102960005ECF00202C3F0120223F01205DCF0020C0
:10297000BCBB00205CCF0020C0D5002010B44FF4B9
:1029800080740C4B53F8202003EB8003C00082F0CE
:10299000400200F1804003F5805C02F0C00200F5C7
:1029A000203003F54053CCF8002041601C605DF8F6
:1029B000044B704704800340C00000F180400430A5
:1029C00000F520331B6800F5243083EA013303F45B
:1029D00040530360704700BF30B44FF0000343EC36
:1029E000440043EC400005254FF480740B4BC200BB
:1029F00053F8201003EB800081F0400102F1804386
:102A000003F5203301F0C00200F5805100F540507D
:102A10000A605D60046030BC704700BF0480034002
:102A20000FB400B583B0049C074803F0D9FB3CB158
:102A300005A92046019103F065FA044803F0D0FB94
:102A4000012003F077FA00BF78B9002088B9002090
:102A5000EFF3108072B6064BD3E8CF1F0122002996
:102A6000FAD1C3E8412F0029F6D1BFF35F8F704739
:102A7000EFEF00200023034AC2E88F3F80F3108865
:102A8000704700BFEFEF002070B58646EFF310856A
:102A900072B6124CD4E8CF6F0120002EFAD1C4E8F0
:102AA000460F002EF6D1BFF35F8F4FF0010CC80820
:102AB00001F007030CFA03F31EF800C01CEA03063A
:102AC00008D14CEA030C0EF800C0C4E88F6F85F300
:102AD000108870BD1046FFF7A3FF00BFEFEF002086
:102AE000F8B5EFF3108772B61C4ED6E8CF5F01241D
:102AF000002DFAD1C6E8454F002DF6D1BFF35F8F08
:102B00009A421BD8012502E00132934222D3D40815
:102B100010F804E002F0070C05FA0CFC1EEA0C0F9A
:102B2000F2D14EEA0C0E00F804E010460023C6E88D
:102B30008F3F87F31088984207DBF8BD0023C6E873
:102B40008F3F87F310884FF0FF300029F5D00698AB
:102B5000FFF766FF4FF0FF30E8E700BFEFEF002020
:102B6000044A1078431CDBB2182B28BF10231370C3
:102B7000704700BF72CF002010B5054C82B00146EF
:102B80001F23182200940348FFF7AAFF02B010BDCC
:102B90008CB90020E40601204FF0E022936843F056
:102BA00000539360704700BF0021044B03F12002E3
:102BB000C3E88F1F01339342FAD17047E4EF00203E
:102BC0004FF0E0234FF08032C3F80024C3F8042410
:102BD000C3F80824C3F80C24C3F81024C3F8142441
:102BE000C3F81824C3F81C24C3F82024C3F82424F1
:102BF000C3F82824C3F82C24C3F83024704700BF3E
:102C0000012300F01F029340400941B1800000F110
:102C1000604000F56140C0F8803103607047024AAF
:102C2000203042F82030704700E100E00123064ADE
:102C3000410952F8212000F01F0003FA00F0104073
:102C4000003818BF0120704700E100E0012243096D
:102C5000034900F01F008240403341F823207047B1
:102C600000E100E0054A10309268054B52F8200060
:102C7000C01A2F288CBF00200120704700ED00E013
:102C800074CF0020F8B50D46EFF3108772B6124EE0
:102C9000D6E8CF2F0123002AFAD1C6E8423F002A06
:102CA000F6D1BFF35F8F0D4B00F110049B680C4A07
:102CB00053F82430934203D0994201D001F01CFB19
:102CC000064B9B6843F82450BFF35F8F0023C6E890
:102CD0008F3F87F31088F8BDEDEF002000ED00E096
:102CE0001D0100102DE9F04F81468B46164683B03A
:102CF000EFF3108372B6DFF8D0A10093DAE8CF1FAC
:102D000001230029FAD1CAE8413F0029F6D1BFF3D7
:102D10005F8F664B93F90040002CC0F2A080644D99
:102D200004EB440705EB870898F8061009F1100931
:102D30001970604BBF009B6853F829006300411B6A
:102D40002F292FD95C49884240F0A4801C445B4B5A
:102D500002372F44043BDB1BC3F34A036FEAC34330
:102D60004FF421416FEAD34325F8241005EB840486
:102D700063804BF60153A380FF2348F00100E67106
:102D8000C4F808B0A3714B4B9B6843F82900BFF30C
:102D90005F8F0023CAE88F3F009B83F3108803B046
:102DA000BDE8F08F20F0010E9EF80710B1422ED83A
:102DB0004FF42143EB53414BB91C2944043B0437E6
:102DC0005B1A2F44AEF10401C91BC1F34A043C490C
:102DD000C3F34A030B432143A8F804103949A8F868
:102DE00002304AF6AA2073465B1B5B415843000D34
:102DF00088F8076088F80600C8F808B048F00100B5
:102E0000CEF80010BFE7D179B1422ED996469EF98F
:102E100006C00CEB4C02BCF1000F05EB8202F2DAAB
:102E20004BF601510EF10402A8F10407BF1AC7F3D3
:102E30004A076FEAC7476FEAD7478EF8064003EBA9
:102E40000408204C05EB8803AEF8047045F82840D0
:102E5000998083F806C0DE71C3F808B093E701F0EB
:102E60004BFA124B93F9004059E7724632F8041FAF
:102E7000490514D44915023102EB410101916FF06B
:102E80000701C91B019F491B3944C1F34A0141F4A1
:102E90006041C9E7019301F02FFA019B56E701F564
:102EA000FF1101F5FF511F31E4E700BF273F01206B
:102EB00074CF002000ED00E01D010010A4CF002021
:102EC00000E0FFFF01488047EDEF0020F0B5EFF391
:102ED0000585EDB2EFF3108C72B62649D1E8CF2FFD
:102EE0000123002AFAD1C1E8423F002AF6D1BFF3FC
:102EF0005F8F214E40F0010EB4684AF6AA2354F8C1
:102F000025701E4A0446A41A644163431B0D77458D
:102F10005BB21BD092F906409C421CD092F9124041
:102F20009C4223D092F91E409C4221D092F92A4023
:102F30009C4208BF03240FD0114A00241578137057
:102F40008571C1E88F4F8CF31088F0BDB2680D4CCD
:102F500042F82540F0E7002404EB440402EB84022D
:102F6000FF2494714BF601549480E5E70124F3E7C4
:102F70000224F1E7EDEF002000ED00E074CF002027
:102F8000273F01201D01001010B5074C82B00146FB
:102F90000523002200940548FFF7A2FD0028A8BFE2
:102FA000C0F1330002B010BDA8B90020313F0120AC
:102FB000014B0B4403607047E4EF002070B5104CE8
:102FC000104DAC420ED2FF26236863B1FFF7C8FD57
:102FD00001462046FFF7ECFFA680BFF35F8F083461
:102FE000AC42F1D370BDFFF7BBFD01462046FFF7B1
:102FF000DFFF2671BFF35F8F0834AC42E4D370BDAE
:1030000068D5002078D5002010B50446FFF7A8FD4C
:1030100001462046FFF7CCFFFF232371BFF35F8FEC
:1030200010BD00BF10B504460120FFF7A5FD034BFE
:1030300003442360BFF35F8F10BD00BFE4EF0020A7
:10304000024B0B440360BFF35F8F7047E4EF002037
:103050000D4B1A68EFF3108172B6D2E8CFCF012082
:10306000BCF1000FF9D1C2E84C0FBCF1000FF4D154
:10307000BFF35F8F00221B68C3E88F2F81F3108896
:1030800040BF002000217047E03C0120000000000C
:103090002DE9F04F2DED028B85B0EFF30583DBB208
:1030A000103B9A0818BF01224FF0010103F0030BF7
:1030B00018BFAF4DAF4B08BFAF4D0BEB820253F8BB
:1030C000226001FA0BF205F541539FEDA78B0192A7
:1030D0005A602FE0B3881C0440F19380B379002B31
:1030E00040F0DD80B6F90820002AC0F21E81736925
:1030F00002EB420203EBC203D3E90247B7F1FF3F01
:1031000008BFB4F1FF3F0ED005EB8B01AB6A0A6933
:10311000D21AE31A934205D301232A6A03FA0BF366
:10312000134200D10C61284600F0ACFBA042B9412B
:10313000C0F2FB80B6F90830019A002B0093EA63D5
:10314000C8DBD6F8148003EB4309284608EBC9070F
:10315000D7E9024A00F096FBA04271EB0A01B9DB05
:10316000BAF1000FC0F2C380D7E90431834A934219
:1031700000F0ED807A88B6F9080092B242EA004089
:10318000984702460B4652EA030100F0B080002B3C
:1031900080F2D180B4EB020E6AEB030A38F93930C1
:1031A000C7E902EA002B95DB716903EB430201EBEF
:1031B000C202D2E90270BE457AEB000C4FEA43022C
:1031C00088DBB4462CF8083F06E003EB430001EB34
:1031D000C0005A00D0E90270BE451A447AEB0000E4
:1031E00001EBC20404DB31F93230A446002BECDAE7
:1031F00028F83930009BACF80030B3881C043FF548
:103200006DAF3369EFF3108272B6D3E8CF0F0121AF
:103210000028FAD1C3E8401F0028F6D1BFF35F8F22
:103220004FF6FF74B0880023316900B2B480C1E862
:103230008F3F82F310889842FFF650AF0746A946A9
:10324000746906F1080807EB470E04EBCE03D3E9D7
:103250000250B6F90830C446002B13DBB246009783
:1032600004E034F936309446002B09DB03EB4306C7
:1032700004EBC602D2E90271BD4270EB0101F0DA43
:103280005646009FACF8007034F93E7024F83E308A
:10329000002FD8DAB3794D46002B3FF423AF00233B
:1032A000B371B6F9083006F10808581C3DD01A462B
:1032B000776903E08046591C3FF416AF03EB4301E6
:1032C00007EBC100B0F802C01C461CF4004F9E463C
:1032D00037F93130EED0944280ED028B05D0A8F85A
:1032E0000030328927F8312034817246E3E738F81C
:1032F000393033813369EFF3108272B6D3E8CF0FE0
:1033000001210028FAD1C3E8401F0028F6D1BFF3FD
:103310005F8F7388316928F83930009B73800023F0
:10332000C1E88F3F82F31088D4E640BF05B0BDEC02
:10333000028BBDE8F08F2846CDE9022300F0A2FA07
:10334000029A039B10EB020E43EB010A26E70846A4
:103350000B69029198470028C9D00299D1E900234E
:1033600011E700BFAFF30080FFFFFFFFFFFFFFFF8C
:1033700000800B40F037012000000B40812F00201F
:103380002DE9F84F364C25692DB1BDE8F84F0A21DB
:103390003448FFF70DBEDFF8E4800321404600F01B
:1033A0005FFA0326C4F80C80FFF7DAFB4FF0504CAD
:1033B0002D4B267003442361DCF800300F2163702D
:1033C000636961801D834FF00405A3F878504FF0C6
:1033D0000505A3F890504FF00605A3F8A8504FF04C
:1033E00007050E214FF6FF7208274FF00A0EA3F8CB
:1033F000C0504FF001094FF00C0C4FF0020B4FF092
:10340000090A0D204FF00B05A3F868111749A28097
:10341000A3F808E1A160A3F848B0A3F8F0A0A3F8CE
:103420002051A3F838C1A3F85001A3F83090A3F8B5
:103430006060A3F8D8701A800D4B3046C8F8207031
:103440000C49DC60FFF71EFC49463046FFF7D8FB0D
:10345000094B0A211F640348BDE8F84FFFF7A8BDD8
:10346000BCCF0020E03C0120E4EF0020FFFF100073
:10347000F0370120812F002000200B4000000B407E
:1034800000487047BCCF0020F8B59DF82050044696
:1034900017461E4635B900F0FDF9874266EB01017B
:1034A00000295CDB2169EFF3108372B6D1E8CF0FFE
:1034B00001220028FAD1C1E8402F0028F6D1BFF33D
:1034C0005F8FB4F90220656902EB4201002A4FEADE
:1034D000C10C206905EBC10139DB35F80CE0A4F81B
:1034E00002E04FF0000EC0E88FEF83F310884888A9
:1034F000069B0130C0F30E00012838BF01200B618C
:10350000079B48804B61C1E9027640EA024023698B
:10351000EFF3108172B6D3E8CF7F0126002FFAD1E6
:10352000C3E8476F002FF6D1BFF35F8FA38825F85C
:103530000C30A2802369C3E88FEF81F31088012249
:10354000E368217803F501538A405A60F8BD0022F0
:10355000C0E88F2F83F310884FF0FF30F8BD284666
:10356000F8BD00BF0146F0B50069EFF3108772B6F1
:10357000D0E8CF5F0124002DFAD1C0E8454F002DDF
:10358000F6D1BFF35F8FB1F902E04C690EEB4E0C40
:10359000BEF1000F4FEACC05086904EBCC0C3CDB14
:1035A000665B4E800026C0E88F6F87F31088BCF8FA
:1035B0000200CCE902230130C0F30E00012838BF1D
:1035C0000120059BACF80200CCF81030069B40EAC5
:1035D0000E40CCF814300B69EFF3108272B6D3E8CA
:1035E000CFCF0127BCF1000FF9D1C3E84C7FBCF16C
:1035F000000FF4D1BFF35F8F8B886353A1F804E011
:103600000B69C3E88F6F82F310880122CB680978B9
:1036100003F501538A405A60F0BD0023C0E88F3F94
:1036200087F310884FF0FF30F0BD00BF034640899C
:10363000B0EB214F37DD58690A1402EB420210B596
:1036400000EBC2001C69EFF3108C72B6D4E8CFEF28
:103650000122BEF1000FF9D1C4E84E2FBEF1000FD8
:10366000F4D1BFF35F8F428889B292B28A4207D009
:1036700000221B69C3E88F2F8CF31088002010BD37
:1036800042F4004242800121002218699971C0E889
:103690008F2F8CF310881C78DA68084602F50153E6
:1036A000A140596010BD0020704700BF40787047AE
:1036B0002DE9F04182B0064600F0ECF84FF47A7341
:1036C00004464FF0FF306FF00042E6FB0341A0429A
:1036D00072EB01033ABF044615460D46A61F45F19D
:1036E000FF37B44275EB07033CBF0026374600F0B6
:1036F000D1F8301A67EB0101012871F1000106DAF7
:103700002046294602B0BDE8F04100F0FBB800F0C9
:10371000C1F8864267EB010100290ADB0021174B43
:103720003246009316483B460191FFF71BFF0130DC
:10373000E6D04FF0000C134A1349536A9F4204D855
:10374000906AB042DCD29F42DAD10B68EFF310806E
:1037500072B6D3E8CF8F5FF0010EB8F1000FF8D149
:10376000C3E848EFB8F1000FF3D1BFF35F8F0B68E8
:10377000C3E88FCF80F3108820BFDEE7412F002001
:10378000BCCF002000000B40E03C01202DE9F043BD
:1037900006460D4683B0EFF30584E4B23CB12D4BF1
:1037A0005A6AAA421CD2002003B0BDE8F0832A4F17
:1037B000D7F80C9097F80080484600F063F808F1BD
:1037C000040859F828301B1A301A65EB0101984299
:1037D00071F1000110DB20BF1E4B5A6AAA42E2D3EE
:1037E00014BF012400249B6AB34234BF204644F036
:1037F000010003B0BDE8F08300F04CF8864265EBB1
:103800000101002914DB154B3846CDE9003432465E
:103810002B46FFF7A7FE011E0ADD0E4B5A6AAA428D
:1038200016D39B6AB34211D30B48FFF7FFFEB6E7EE
:10383000084B5C6AAC42B6D3641B18BF01249B6A78
:10384000B34234BF204644F00100ADE7AA42EBD1B9
:1038500020BFE9E700000B40BCCF0020412F002033
:1038600010B4054B054C064AA04214BF1846581C1C
:103870005DF8044BFFF708B9E806012000800B4013
:10388000C4B900200346416A0A46986A596A8A42C6
:10389000FAD17047034B596A0A46986A596A9142AD
:1038A000FAD1704700000B4030B4154A536A9C4669
:1038B000946A536A6345FAD1021959414FF00005E1
:1038C00028BF01250E4B5B6AB5B15A1C08BF1A46CA
:1038D00008D04FF0FF310A460948436A8B42FCD3B7
:1038E0008B4207D1064902E0486A984202D1886AB1
:1038F0009042F9D330BC70479942EDD8F0E700BF51
:1039000000000B40074A536A9942FCD8994207D1FC
:10391000044B02E05A6A914202D19A6A9042F9D865
:10392000704700BF00000B4070B516460D461946A3
:103930000446FFF73DFB2946701C00F05DFF0023A5
:10394000E6816060A581A36070BD00BF38B54FF00F
:10395000000E044607E063451FD12368C3E88FEFDC
:1039600085F3108820BF2368EFF3108572B6D3E883
:10397000CF0F01220028FAD1C3E8402F0028F6D14A
:10398000BFF35F8F20896389B4F80EC0C31A0CF1AE
:1039900001021A44DFD56245DFD0A289636802FBC9
:1039A000003006F053FC00222389E18901339BB2E9
:1039B000994238BF134621682381C1E88F2F85F3D0
:1039C000108840BF38BD00BF38B504464FF0000E28
:1039D000084606E021D12368C3E88FEF85F31088FD
:1039E00020BF2368EFF3108572B6D3E8CFCF012252
:1039F000BCF1000FF9D1C3E84C2FBCF1000FF4D19A
:103A0000BFF35F8FB4F80AC02389A3EB0C03002B2C
:103A1000E0DAE2890132DA42DDD038B1A2896168A8
:103A200002FB0C1106F012FCB4F80AC0E3890CF199
:103A3000010C1FFA8CFC634538BF4FF0000C226864
:103A40000023A4F80AC0C2E88F3F85F3108840BF66
:103A500038BD00BFF8B5054606200E4600F048F90F
:103A6000002842D0354A3648954214BF4FF0806254
:103A70004FF00062334B344902601A608C6832EABE
:103A80000404FBD12D4B4FF48071EB1AB3FA83F38E
:103A90002E4A5B09062022F8131000F029F9C30012
:103AA000B3FBF6F30133DA0920D140260121696224
:103AB000AA622F6BFB0722D42B46002253F82C1F3F
:103AC000062003F5805422602F6300F011F940F2C4
:103AD000013103228000B0FBF6F0EB6A83F0700343
:103AE00003F07E0323602963AA64F8BD4FF6FE71DC
:103AF0008A421BD922464FF6FF71154ED7E740F296
:103B0000013205F540531A636B6AAC6A062004EB78
:103B1000831400F0EDF80F4BA402A3FB0023DB0A93
:103B20000021B4FBF3F0FFF7BFFEC5E7C3F3450385
:103B3000114603EB82161A46B9E700BF0080074022
:103B4000002002400030024000000240F83E012008
:103B5000C0FF3F00757B2B8F013A0539D200F8B5C5
:103B6000054642EA411443B1A3F10103B3FA83F3DA
:103B70005B0944EA830343F002042E6BF3070AD483
:103B80002B4653F82C2F624002F06E0203F580534F
:103B90001A602E63F8BD40F2013205F540531A63F6
:103BA0006B6AAF6A062007EB831700F0A1F8054B9C
:103BB000BF02A3FB0030C00A0021B7FBF0F0FFF703
:103BC00073FEDDE7757B2B8FF8B5066B0546F307B3
:103BD0004FEA01140AD42B4653F82C2F544004F01A
:103BE000100403F580531C602E63F8BD40F20132CF
:103BF00000F540531A636B6AAF6A062007EB831720
:103C000000F076F8054BBF02A3FB0030C00A00218C
:103C1000B7FBF0F0FFF748FEDDE700BF757B2B8FA9
:103C200000EB400C4FEA8C0C0CF1804C0CF5803C06
:103C3000F0B51646DCF80420051FB2F5803F38BF0A
:103C40004FF48032EDB238BFCCF80420012D2AD9D0
:103C50004FF40067254C0CF54052176054F82020B3
:103C6000B2B9DCF80020012D82EA461202F0E0022F
:103C70000CF5805632602AD94FF4006144F82030A8
:103C80004FF480330CF500521160CCF80430F0BDD5
:103C90006769B7FBF2FE0EF1010E0EEB4E0EBEF1A0
:103CA000030EFCD2DDE70129D2D103240CF54052EA
:103CB0001460DCF80820D207FBD5DCF800200B4CA0
:103CC00082EA461202F0E0020CF5805632600122D0
:103CD000DCF800504D4005F00305356002FA01F1B3
:103CE000DCF808200A42FBD0C6E700BF54230120BD
:103CF000014B53F82000704754230120584B2DE905
:103D0000F0431C6C1746B4F5803F38BF4FF4803247
:103D100083B038BF1A64032280460E46514B504D83
:103D2000DA636C6CE307FCD5EB6B4F4A83F020033E
:103D300003F0E003D363EB6B494D83F0010303F021
:103D40000303D3636C6CA407FCD54FF400624FF4FB
:103D50008039464B464CDA63464B4246636101214B
:103D60003346C5F840904448009700F057F94FF4A7
:103D700000616B6B07FB06F64B4538BFC5F8349006
:103D8000384B2269B8FBF6F619633AB16369B3FBA5
:103D9000F2F3013303EB4303033BFDD23049324AD4
:103DA0000B6B03F0E00313630B6B83F0020303F070
:103DB000030313638B6B5807FCD54FF400654FF476
:103DC00080332A4A15632D4A4B6322610A6C9A425A
:103DD0004FF0030238BF0B64224B2149DA634B6C6E
:103DE000DA07FCD5CB6B204A03F0E003D363CB6B3F
:103DF0001B4983F0010303F00303D3634B6C9B0760
:103E0000FCD54FF480334FF40065184A6661D563E2
:103E10000B64CA6C9A4238BFCB644FF40061114BFB
:103E2000A26999643AB16369B3FBF2F3013303EB1E
:103E30004303033BFDD24FF400604FF48031084A46
:103E4000094D936C83F0400303F0E003AB64074B30
:103E5000084DA5619864D16403B0BDE8F08300BF4C
:103E600000000140003001400010014000200140EE
:103E700054230120006CDC0200000540001BB70049
:103E80002DE9F04F4FF4A078994685B0CDE90212A4
:103E90005F4CDFF884A154450AD908F1FF38A4F536
:103EA0003B54B8F10F0FA4F12004F4D1002069E0D5
:103EB000072304F53722019403FB03F402F5D872BB
:103EC000B2FBF4FE70454FF0010C4FF002074FF0CB
:103ED00003064FF004054FF005013FD0B3F1010E8A
:103EE00000F094800EFB03F4B2FBF4FB58454CD079
:103EF00019B301FB03F4B2FBF4FB58454FD0E5B115
:103F000005FB03F4B2FBF4FB584553D0AEB106FBFE
:103F100003F4B2FBF4FB584557D077B107FB03F429
:103F2000B2FBF4FB58455BD0BCF1000F05D00CFB95
:103F300003F4B2FBF4FB83455DD0734603FB03F44B
:103F4000B2FBF4FE704501F1FF3105F1FF3506F1DA
:103F5000FF3607F1FF370CF1FF3CBFD104FB102403
:103F6000002CBBD19E464A46DDF808B0DDF80C9027
:103F70000120284901FB08F1CBF80010C9F80030F6
:103F8000C2F800E005B0BDE8F08F04FB1024002C5F
:103F9000AED14A46DDF808B0DDF80C90E8E704FB46
:103FA0001024002CABD14A468E46DDF808B0DDF86F
:103FB0000C90DDE704FB1024002CA7D14A46AE4646
:103FC000DDF808B0DDF80C90D2E704FB1024002CDB
:103FD000A3D14A46B646DDF808B0DDF80C90C7E735
:103FE00004FB1024002C9FD14A46BE46DDF808B0E1
:103FF000DDF80C90BCE704FB1024002C9DD14A4650
:10400000E646DDF808B0DDF80C90B1E7019C44E726
:1040100050262F00001BB70050F80C0070B4039D11
:1040200004682D0345EA03451B4B002CB3FBF1F359
:10403000B2FBF3F61FDB194A194B904214BF4FF441
:1040400080424FF40042174C1A6003F580531A6007
:10405000A36832EA0303FBD1212200F54053043365
:10406000016086601A600268002AFCDA0822C560D6
:104070001A6070BC7047036803F03F038B42DAD1CB
:104080008368C3F30B03B342D5D1C36803F4EE23B3
:10409000AB42D0D1EDE700BF001BB7000080054068
:1040A00000200240000002400A4B0B490B4A5960B5
:1040B000D3681904FCD40A4BD26843EA00130949B7
:1040C000534009481940054AC160D3681B04FCD419
:1040D000704700BF002010400020FE5A0000104032
:1040E0000000FE5AF001FE5A00101040024A034B35
:1040F00012685A60704700BFC837012000800D4029
:1041000030B44FF08045174B174A184CDA61184A03
:1041100003F540531D6094604FF0E06249B1A3F590
:1041200080531A6040B930BC4FF00042114B1A6006
:1041300070471A600028F6D04FF47A7303FB00F042
:10414000B0F1807F2ABF6FF07F43034618464FF0DF
:104150008042094C03492360064B486030BC1A601A
:10416000704700BF00800D402131B76AF3FFFF01A7
:1041700000A0014000A00D40C837012030B44FF02E
:1041800080441C4B1C60E0B11B4CA3F54053DC6128
:104190001A4C40F0010044401C62596298624FF092
:1041A00080454FF0E061134B1548164C1D6084604C
:1041B00019604AB930BC4FF00042A3F580531A6031
:1041C0007047114BD861EAE74FF47A7303FB02F2B0
:1041D000B2F1807F2ABF6FF07F4313461A464FF03B
:1041E00080410A4C08482360094B426030BC19608A
:1041F000704700BF00B00D40D3C007B02D3FF84F4F
:1042000000A00140F3FFFF0100800D40C8370120EE
:1042100000A00D40012300EB4000800000F1804031
:1042200000F5841041600360704700BF002370B543
:10423000DB8A04460D46002242E800F2520254BFD7
:104240001021042144F25220984786462B462246EC
:10425000F446BDE870400A214FF48170604700BF0A
:104260000023DB8A002242E800F2520201D410212E
:1042700018470421184700BF08B503460846191E11
:1042800002DB1AB140F03000FFF7D0FF40F0200011
:10429000FAE700BF034AD2F82838002BFBD0BFF35F
:1042A0005F8F704700000E400021044B044ABFF3AB
:1042B0005F8F43F8041B9342F9D170470C080E40FE
:1042C0002C080E4010B44FF48D704FF42A64064A47
:1042D000064B07491460D06019605368002BFCDA64
:1042E0005DF8044B704700BF0080044000A004400C
:1042F00000B0FA00704700BF08B50148FEF790FB18
:10430000E8B9002038B5054C054DAC4204D254F84C
:10431000043B9847AC42FAD338BD00BF78D50020A3
:10432000B8D5002038B5054C054DAC4204D254F840
:10433000043B9847AC42FAD338BD00BFA4D5002057
:10434000B8D5002010B40748074C084B084A094963
:1043500004601A608B6832EA0303FBD15DF8044BFA
:10436000704700BF002002407F3BEFEF003002406B
:10437000F6FFF30300000240044BDB6CB3F5004F83
:1043800003D14FF48022024BDA64704700001150D1
:10439000002011504FF0E022044BD2F8881D0B434F
:1043A000C2F8883D10EE3004704700BF03033000B0
:1043B0006FF06041044B054A19609368DB4333F0AA
:1043C0006043FAD1704700BF003002400000024055
:1043D00010B545F25320FFF743FFBDE810400346F8
:1043E0000420184710B545F25320FFF739FFBDE808
:1043F0001040034601201847FEF7D6BB10B5054B09
:10440000054C4FF488721846A16805F01FFFA060A4
:1044100010BD00BF0000002000ED00E0002370B5DB
:104420002B4C82B0C4F88430FFF74CFF0122294B9B
:10443000DA63636C012BFCD10321264A244B116300
:104440009C6B012CFCD10226052521460523224A1E
:1044500022480096FFF7E2FD21462B46204A2148DC
:104460000095FFF7DBFD0022042031461E4BFFF7CD
:10447000D7FB2146284600221C4BFFF7D1FB002228
:10448000082011461A4BFFF7CBFB002209201146EA
:10449000174BFFF7C5FB002206201146134BFFF711
:1044A000BFFB0022114B07201146FFF7B9FB042088
:1044B000FFF71EFC00240F4BA3FB0035AD0CE0B250
:1044C00029460134FFF7A6FE062CF8D102B070BDD4
:1044D0000000014000300140002F685900000540F5
:1044E000008C864700800540001BB70080D1F00893
:1044F000006CDC0283DE1B4386B003B451FC08046D
:10450000CDE9020151FC0904CDE9040151EC0A0492
:10451000CDE9060103BCF047BDE800504EEC00C4F5
:10452000BDE800504EEC01C4BDE800504EEC02C4A2
:1045300000BD000000B5FFF7DFFF02E010FE30F421
:10454000F8D441EC100443EC112400EE010410EE09
:10455000010480EE200451EC1004704700B5FFF711
:10456000CBFF02E010FE30F4F8D441EC100443EC31
:10457000112400EE010410EE210480EE200451EC21
:104580003004704700B5FFF7B7FF02E010FE30F4CB
:10459000F8D410B541EC100443EC112451EC0404A0
:1045A00053EC0524A0FB024C5FF0000EE0FB03CEB1
:1045B000E1FB02CE4CEC20440024E1FB03E444EC9C
:1045C00030E480EE200451EC5004BDE81040704708
:1045D00000B5FFF791FF02E010FE30F4F8D441EC93
:1045E000100443EC112451EC2104A0FB01126FEAEA
:1045F000820252FB100052FB12F252FB1000A0EBA1
:10460000D07C53EC04245CFB13F153EC1524A1FB88
:10461000022001FB030053EC4424A2EB000050FBFA
:104620001CF24FEA111312EB017043EBE27140EA06
:10463000515020EA915020F0070053EC7524A0FB64
:10464000023C53EC752400FB03CC01FB02CC53EC81
:104650000424ACEB824C40EA5C70A0F1010041EC18
:10466000400480EE200451EC7004704700B5FFF761
:1046700043FF02E010FE30F4F8D440EC700400EE8A
:10468000010410EE210480EE200451EC3004704748
:1046900000B5FFF731FF02E010FE30F4F8D440EC33
:1046A000600400EE010410EE210480EE200451ECC1
:1046B0003004704700B5FFF71FFF02E010FE30F432
:1046C000F8D441EC800400EE010410EE010480EE09
:1046D000400410EE1304704700B5FFF70DFF02E031
:1046E00010FE30F4F8D441EC800400EE010410EE2A
:1046F000010480EE400410EE3304704700B5FFF76C
:10470000FBFE02E010FE30F4F8D441EC100443EC60
:10471000112400EE010410EE3004C0F30070704765
:1047200000B5FFF7E9FE02E010FE30F4F8D443ECE8
:10473000102441EC110400EE010410EE30F48CBFA3
:1047400001200020704700BF00B5FFF7D5FE02E052
:1047500010FE30F4F8D443EC102441EC110400EEC8
:10476000010410EE30F42CBF01200020704700BF80
:1047700000B5FFF7C1FE02E010FE30F4F8D441ECC2
:10478000100443EC112400EE010410EE30F42CBFB1
:1047900001200020704700BF00B5FFF7ADFE02E02A
:1047A00010FE30F4F8D441EC100443EC112400EE78
:1047B000010410EE30F48CBF01200020704700BFD0
:1047C00038B50446094805F037FF204605F07EF865
:1047D0000546064806F01EF82DB1054B2C449C42B8
:1047E00001D8284638BD0348FEF71AF968D50020DD
:1047F00000000820F4B9002070B504460E460B48AE
:1048000005F01AFF3146204605F020F80546074816
:1048100006F000F806FB04F42DB1054B2C449C4235
:1048200001D8284670BD0348FEF7FAF868D5002085
:1048300000000820F4B900209A4238BF885470471D
:10484000704700BF2DE9F04F83B09946DDE90DAB0D
:104850000F9B884611469A07074616D1DA453AD289
:104860000C460D46ABEB0A060E4422464B4641462B
:1048700020200134B847B442F7D12946BAF1000FDD
:1048800008D1204603B0BDE8F08F0C46BAF1000F06
:1048900010D00E4655460C9B2E449A440191721B33
:1048A0004B46013D41461AF8010D3446B847002DEC
:1048B000F5D101990F9B9B07E3D5651AAB45E0D96C
:1048C00022464B46414620200135B8475D4504F15C
:1048D0000104F5D3D5E70C46BAF1000FD9D1D0E7E2
:1048E0002DE9F04F0F9FDDF8248017F0020F0A9C8E
:1048F0009DF82CA00E9DDDE90C9644D1F5BBB44289
:1049000041D207F0010B04F1FF3C4FF0300EC444DC
:1049100004E00134A6420CF801EF01D9202CF8D1B3
:10492000BBF1000F00F08880A5422CD904F1FF3CB8
:104930004FF0300EC44404E00134AC420CF801EFF7
:1049400021D0202CF8D117F0100F0ED017F4806F63
:1049500054D1A64263D0A54261D0B9F1100F50D016
:10496000B9F1020F56D0202C29D12024CDE90B57C4
:10497000CDE90984BDE8F04FFFF764BF17F0010BE4
:1049800034D1B442BFD317F0100F1ED017F4806F8C
:10499000E3D1002CDDD1B9F1100F63D0B9F1020FD2
:1049A00077D0302488F800400124BAF1000F11D1EB
:1049B0007E0748D52B2608F804600134D6E7264642
:1049C00001344FF0300C08F806C0202CCDD0BAF1DD
:1049D000000FEDD02D2608F804600134CDE90B5707
:1049E000CDE90984BDE8F04FFFF72CBFBAF1000F05
:1049F00030D0B44205F1FF3585D395E7B9F1100FFA
:104A0000B3D1BE063BD5202CAFD0582608F80460A1
:104A10000134A8E7202CA8D02646013407E0661E02
:104A2000B9D0B9F1100F36D0B9F1020FC9D14FF09A
:104A3000620C08F806C096E717F0100FC5D017F4FF
:104A4000806F86D089E73E0790D5202608F804605D
:104A500001348BE717F00C0F00D0013DB442FFF496
:104A600052AF61E7BC0612D4782488F800403024A5
:104A700088F801400224BAF1000F99D0AAE7202C4F
:104A80003FF473AF782608F8046001346BE75824CC
:104A9000EBE76224E9E717F0200FA4F1020C04D041
:104AA0004FF0580E08F80CE08BE74FF0780E08F83E
:104AB0000CE086E700B9704701F050BB0000000031
:104AC0002DE9F04F97B09DED207BDDE9225B074695
:104AD000884651EC170B249C99460C920B460246D3
:104AE0008DED047B0794FFF70DFE002840F0F48164
:104AF000DDE904014FF0FF326FF48013FFF714FE7D
:104B0000002840F01B81DDE904014FF0FF32AC4B7F
:104B1000FFF746FE002840F0EE80DDE90401A4A383
:104B2000D3E90023FFF73CFE002840F0D380DDE905
:104B30000401A1A3D3E90023FFF7F6FD002840F00C
:104B4000C980DDE9040100220023FFF7EDFD002804
:104B500040F0E88023460D9013F4806F08BF0625CF
:104B600030212B460EAAA5F1200605E0013BB342F9
:104B700002F8011B00F09381092BF7D81E46ED1AAD
:104B8000DDE90401FFF79AFD8E4B044603EBC603F3
:104B900093ED007B8DED087BFFF76CFD02460B4625
:104BA000DDE90401FFF7DEFCDDE90823FFF7EEFC99
:104BB00002460B46CDE90A23FFF792FD8246FFF736
:104BC0006BFD02460B46DDE90A01FFF7CBFC02460E
:104BD0000B46CDE90A2300227B4BFFF7E1FD0028BD
:104BE00000F0FE800AF1010A5046FFF755FD02462B
:104BF0000B46DDE90801FFF7ABFD10B14FF0000AED
:104C00000134002E00F0FD80681E0EABDFF8CCC131
:104C100018440FE0ACFB0A21C90801EB8102AAEBA2
:104C200042023032BAF1090F00F8012F40F21C8124
:104C30008A461D46202D05F1010306F1FF36E9D114
:104C40002025691E0EAB6148194410E080FB046208
:104C5000C3EBA20303EB8302A4EB420404F1300292
:104C600001351C4601F8012F002B00F0EB80202DB0
:104C70004FEAE473EAD1079B03F00303012B18D139
:104C8000BBF1000F15D00D9B002B00F00A810BF13A
:104C9000FF3BBBF1200F0CD96B1E0EA930220B4439
:104CA00005E001355D4503F8012F80F0D180202D0E
:104CB000F7D1079B0EACCDE902B341464B463846CF
:104CC0000C9A01950094FFF7BDFD8246504617B03F
:104CD000BDE8F08F079B9DED047BCDE923B34146F2
:104CE0004B4638460C9A8DED207B229517B0BDE8D7
:104CF000F04F00F045B9610723464CBF042303235E
:104D00004146219338464B46079A48BF304CCDE97F
:104D100022B258BF2F4C0C9A209417B0BDE8F04F28
:104D2000FFF790BDDDE9042300200021FFF71AFC06
:104D30000123CDE904010D9323460DE723469C078B
:104D400040F0AA80BBF1040F40F2A6800C9B1D46E8
:104D50001C1F04EB0B0A2A464B4641462020013516
:104D6000B847AA45F7D155461B4C261F14F8010D2C
:104D70002A464B464146B847B44205F10105F5D1F4
:104D8000079B0AF1040A9807A0D50C9CAAEB040320
:104D90009B459BD952464B46414620200AF1010AC9
:104DA000B847AAEB04035B45F4D38FE7AFF3008069
:104DB0000000000065CDCD410000000065CDCDC1F3
:104DC000FFFFEF7F40CC00200000E03F6766666693
:104DD00044BA00204CBA002058BA0020CDCCCCCC2C
:104DE0000022DDE90A01634BFFF79EFC00287FF4F7
:104DF00008AFBAF1000F6AD10AF1010A002E7FF460
:104E000003AF2046FFF736FC02460B46DDE90401FE
:104E1000FFF7A8FB02460B46CDE904230022554BC1
:104E2000FFF782FC00287FF40CAFDDE904010022CB
:104E3000504BFFF7B5FC00287FF403AF013424F09A
:104E40000104FEE6079B03F00303012B00F08280C0
:104E5000202D3FF42EAF0D9B7BB32D220DEB0503D0
:104E600083F83820013524E7202B3FF4E9AE0EAA61
:104E700015441E44302204E0202B05F8012F3FF496
:104E8000DFAE9E4203F10103F6D12E220DEB0603A5
:104E900083F83820751CD4E6DDF830A063E72025C0
:104EA0006EE6079B13F00C0F50D00BF1FF3BAB45A8
:104EB0003FF6F2AE202D3FF4FCAE079B5A0701D51A
:104EC0002B22CBE71B077FF5F4AE2022C6E71AF0B2
:104ED000010F3FF496AE8FE7A60734D1BBF1030F65
:104EE00031D90C9B1D46DC1E04EB0B0A2A464B46AF
:104EF000414620200135B8475545F7D155461E4C4F
:104F0000E61E14F8010D2A464B464146B847A64214
:104F100005F10105F5D1079B0AF1030A9D077FF50D
:104F2000D5AE0C9CAAEB04039B457FF6CFAE524650
:104F30004B46414620200AF1010AB847AAEB040378
:104F40009B45F4D8C2E6DDF830A0D7E7AB453FF685
:104F5000A3AEAEE6BBF1000F3FF47AAF0D9B002B82
:104F60009FD00BF1FF3B5D45FFF496AE202D7FF403
:104F700074AF9EE60000E03F53BA0020000000003E
:104F80002DE9F04F9FB02A9EDDE92845074693465C
:104F90000891099322462B46204629460E96DDE9C4
:104FA0002BA6FFF7AFFB002840F0BE802046294625
:104FB0004FF0FF32784BFFF7F3FB002840F0B4804E
:104FC000204629464FF0FF326FF48013FFF7ACFB09
:104FD000002840F0A9802046294600220023FFF740
:104FE000A3FB002840F0D581CDE90A45DDE90A237D
:104FF0009046994606F4006216F480630F9213936C
:1050000040F0A18058EA090340F0CA80002A40F02D
:10501000E38106230E9316F00202109240F0D48131
:105020005346042B38BF04230C920422043B1292F3
:105030000F932046294600220023FFF775FB002826
:1050400040F0F3819DED0A7B0F9B5A4603930E9B24
:105050008DED007B029326F4006304933846099B90
:105060000899FFF72DFD024616F0200F099B0899BD
:105070000CBF6520452002F10108B8470C9A129B2D
:1050800016AC5D1E82EAE273A3EBE273D10F002639
:1050900022469946DFF804C101E0202E10D0CE460A
:1050A000ACFB0930C00800EB8003A9EB43033033AD
:1050B000BEF1090F814606F1010602F8013BECD86A
:1050C0000523002006930A2305950094099D089C5A
:1050D0004246CDE90330CDE901612B4621463846F1
:1050E000FFF7FEFB109A8046D2B1A0EB0B06B2454B
:1050F00016D90BEB06022B46214620200136B84775
:10510000B245F6D80BF1FF335344CBF10102A3EBC8
:1051100008034244924538BF002308F1010898442F
:1051200040461FB0BDE8F08F5A463846CDE92845C5
:10513000CDE92BA60E9C099B08992A941FB0BDE8C7
:10514000F04FFFF7BDBC58EA09032BD1002A3FF40A
:1051500062AF00230C930E9B0C9A934200F3B9812B
:105160004FF000082046294600220023FFF7DCFA12
:10517000002840F013819DED0A7B26F4006646F47A
:1051800080668DED287B5A463846CDE92A8A099BF0
:1051900008992C96D2E700BFFFFFEF7FCDCCCCCC97
:1051A00006230E93C9F30A50A0F2FF30FFF762FA0C
:1051B000C1A3D3E90023FFF7E9F9C1A3D3E9002391
:1051C000FFF7BCF9C9F31309CDE90C0149F07F5190
:1051D00040460022B24B41F44011FFF7C3F9A4A3AB
:1051E000D3E90023FFF7D2F902460B46DDE90C01B3
:1051F000FFF7A4F9FFF762FA0C90FFF73BFA9EA3C2
:10520000D3E9002380468946FFF7C0F90022A54B69
:10521000FFF794F9FFF752FA0346494640461293C6
:1052200097A3D3E90023FFF7B1F980461298894686
:10523000FFF720FA94A3D3E90023FFF7A7F902466A
:105240000B4640464946FFF78DF902460B4680461D
:105250008946FFF79BF942464B46CDE9100140468F
:105260004946FFF76BF90022CDE91401DDE9100191
:105270008D4BFFF7B1F900228C4BFFF75FF9024627
:105280000B46DDE91001FFF7A7F90022884BFFF775
:1052900055F902460B46DDE91001FFF79DF942463C
:1052A0004B468046894600204FF08041FFF75AF96F
:1052B00002460B4640464946FFF740F902460B4678
:1052C000DDE91401FFF788F900227A4BFFF736F980
:1052D000129B002203F2FF3C4FEA0C53FFF756F9F2
:1052E00080468946DDE90A0142464B46FFF71CFA33
:1052F00050B10C9B4046013B49460C9300226B4B3E
:10530000FFF76AF9804689460C9A43466332C62AFB
:1053100006F00202109249460F9A2CD8002A5ED05D
:10532000042212920B433FF416AFDDE90A0158A3A1
:10533000D3E90023FFF720FA48B1DDE90A0156A3BB
:10534000D3E90023FFF7F0F900287FF404AF0E9BA8
:10535000002B50D0139A002A7DD0013B0E93129B54
:105360009A4505D9109B002B00F0AE8002231093C4
:1053700000230F9344E022BBBAF1050F4FD906F08A
:105380000203002B49D105231293AAF105030F93C1
:105390003AE005F100430A940B9327E626F40066F1
:1053A00046F4806638462C96DDE90A67344607F1F4
:1053B00000455A46CDE92A8ACDE92845099B089936
:1053C000BCE605221292ADE700230222CDE90F329E
:1053D00004220C9312922CE64FF00508C2E6BAF1B3
:1053E000040F1FD9109B002B78D104231293AAF12C
:1053F00004030F9304E0129B9A4531D80E9B0F9340
:105400000C9B002B3FF415AEDDE90A0142464B46EA
:10541000FFF7E2F8CDE90A010BE60223109305231A
:105420001293F1E704231293EAE7DDE90A45A04667
:105430000F9B05F1004903930E9B5A46029326F4F5
:10544000006304933846CDE90089099B0899FFF76A
:1054500037FB024608E6129B9A4544D80F92CFE7E5
:10546000109B8BB30E9B0F9302231093C8E700BFD2
:1054700061436F63A787D23F71A379094F930A40B5
:105480001655B5BBB16B0240EF39FAFE422EE63F2E
:105490002D431CEBE2361A3F0000000080842E41B1
:1054A0000000F83F0000E03F00002C4000002440D6
:1054B000000018400000F03FFB799F501344D33F99
:1054C000B3C8608B288AC63F129BAAEB03030F93D5
:1054D00096E7A3EB020808F1FF3843E60423129392
:1054E000022310938CE7109B002BEDD002230F9228
:1054F000109385E72DE9F04F9BB0249C954D0A94BD
:10550000954CB1F1000A18BF834625601878934C7A
:10551000914608BFA3460993002800F093824FF0FC
:1055200000080AE042464B46514608F10108D847B8
:10553000099B1878002800F0CE80099B252803F1EC
:1055400001030993EED11C460023224612F8010BF9
:10555000A0F1200110290AD8DFE801F04009093C38
:105560000909090909090938093409093000A0F1B4
:1055700030010929099440F28A802A2800F0F0803D
:1055800000252E2800F096800026A0F1680112293F
:105590002DD8DFE811F049012C0043012C0038011F
:1055A0002C002C002C002C002C002C002C002700A0
:1055B0002C002C002C002C002C002700144643F05B
:1055C0000103C2E7144643F00203BEE7144643F06A
:1055D0000403BAE7144643F01003B6E7144643F059
:1055E0000803B2E70999487843F4807301326728C9
:1055F00009927ED8242840F2C180A0F12502422AD7
:1056000000F2BC80DFE812F05001BA00BA00BA0024
:10561000BA00BA00BA00BA00BA00BA00BA00BA00BA
:10562000BA00BA00BA00BA00BA00BA00BA00BA00AA
:10563000BA00BA00BA00BA00BA00BA00BA00BA009A
:10564000BA00BA00BA00BA00190137011901BA004C
:10565000BA00BA00BA00BA00BA00BA00BA00BA007A
:10566000BA00BA00BA00BA00BA00BA00BA00BC0167
:10567000BA00BA00BA00BA00BA00BA00BA00BA005A
:10568000BA00BC015801BC011901370119010025FC
:1056900000E0013205EB850500EB45051078303D53
:1056A000A0F130010929F4D92E28099202F1010252
:1056B0007FF46AAF099943F4806348781146A0F1FA
:1056C0003006092E40F221812A2800F02F8109920C
:1056D0000026013259E74446C14501D809F1FF3897
:1056E0004B46424651460020D84720461BB0BDE8F5
:1056F000F08FA0F16902D2B20F2A3FD8012149F2FE
:1057000041079140394040F0F3800A2A3DD0072AF2
:1057100034D10A9D55F8042B002A00F0138143F080
:10572000210012AB1F460B9303E0202900F01481E7
:105730001A4602F00F042346092C94BF3033373346
:105740000F2A07F8013B01F101014FEA1213ECD8CF
:1057500002E100BFE5530020C4370120314700209B
:105760000A99099851F8045B4078002DCDE9092188
:10577000BCBF43F002036D42013202E742464B4692
:10578000514608F10108D847D2E60A99002E51F88F
:10579000047B18BF3246387808BF4FF0FF3200282C
:1057A00000F07B83BC18A4463A4604E012F8014F8F
:1057B000002C00F03F819445F8D16446E41B5A0563
:1057C00040F12281B44228BF344613F0020300F0B6
:1057D00088820223CDE90A5142461D46464408E02C
:1057E0004B465146D84717F8010F08F1010810B190
:1057F00042464645F4D12B460B990A9D002B40F0BA
:1058000041810A9194E6099948786C287FF4ECAEBE
:105810000A46887843F440730332E8E6099943F472
:10582000007348780132E2E609994878682800F068
:10583000038143F080030132D9E6672800F0D98064
:10584000472800F0DC80452800F0DB80CDE90353D9
:105850000A9B0296073323F007031C464246F4E8EE
:1058600002674B4651465846CDE900670A94FFF758
:1058700087FB80465CE6462808BF43F02003CDE95D
:1058800003530A9B0296073323F007031C46424644
:10589000F4E802674B4651465846CDE900670A9442
:1058A000FFF70EF9804643E642464B465146252017
:1058B00008F10108D8473BE60A9A990702F1040467
:1058C00008F1010640F1C68010784B464246514629
:1058D000D847012D88BFA84440F2BD8132464B46CF
:1058E000514620200136D8474645F7D10A941FE695
:1058F0006F2800F0818040F24882782800F0908183
:105900000A2723F01003BC4641E0002606EB86067A
:1059100000EB4600A0F1300611F8010FA0F13002B3
:10592000092AF3D90A46099101322EE6DDE9092157
:1059300051F8046B9078023209920A91013226EAFA
:10594000E67622E623F0100013F4806240F0210096
:105950003FF4E7AE12AB0B930B9B0690009308232A
:105960001020059300234246CDE9023001914B46B9
:10597000514658460496FEF7B3FF0A958046D7E590
:10598000582862D0622840F08F800227BC4613F46A
:10599000806000F0DD8023F00D0313F4007240F00E
:1059A00081810A990F1D13F4807140F037825C06E3
:1059B0000A9A40F13B811278002A40F04E8123F090
:1059C0001003002800F04981114612AA0B92CDE97C
:1059D0000553CDE903C601910B9B4246009300237A
:1059E0005146029358464B46FEF77AFF0A97804687
:1059F0009EE543F4006329E70827BC46C7E743F464
:105A0000006343F0200321E713F0020300F08E81CE
:105A100002230A951E460D4642464B465146D8473C
:105A200017F8010F08F101080028F5D1294633467F
:105A30000A9DE3E6D41BC2E60A46887843F0C00319
:105A40000332D4E50446804646E6102743F020039F
:105A5000BC469CE7012D40F2F880464608F1FF372E
:105A60002F4432464B46514620200136D847BE428D
:105A7000F7D10A9B3246187851464B46D847A8447E
:105A80000A9455E54646A5427FF6BBAEA844A8EB6E
:105A900004080C4632464B46514620200136D84772
:105AA0004645F7D12146ACE613F4806200F0BB8096
:105AB0004FF4806223F0110C1CF400770A9B4AD14A
:105AC0001CF4807003F1040440F034811CF0400F9A
