:020000041000EA
:10000000002008205D0100101301001015010010F0
:100010001101001011010010110100101101001058
:100020001101001011010010110100101701001042
:100030001101001011010010190100101B01001026
:100040001D0100101D0100101D0100101D010010F8
:100050001D0100101D0100101D0100101D010010E8
:100060001D0100101D0100101D0100101D010010D8
:100070001D0100101D0100101D0100101D010010C8
:100080001D0100101D0100101D0100101D010010B8
:100090001D0100101D0100101D0100101D010010A8
:1000A0001D0100101D0100101D0100101D01001098
:1000B0001D0100101D0100101D0100101D01001088
:1000C0001D0100101D0100101D0100101D01001078
:1000D0001D0100101D0100101D0100101D01001068
:1000E0001D0100101D0100101D0100101D01001058
:1000F0001D0100101D0100101D0100101D01001048
:100100001D0100101D0100101D0100101D01001037
:1001100000BE00BE00BE00BE00BE00BEEFF3058004
:10012000103800BEF2EB887144BD001064BD0010B1
:10013000A801001090A31AE7D3DEFFFF42012110AF
:10014000FF01000028DC0000793512AB4FF0000001
:100150002049086006C881F3088810474FF05040D6
:10016000006810B14FF00000F2E70FA40ECC002998
:1001700002D000F015F8F9E71749184A002000E00E
:1001800001C19142FCD1002080F30A8814498847BC
:10019000144988471449884700BEFDE701C901C2D8
:1001A0009A42FBD3704700BF64BD001010010020CD
:1001B000E017002034D40010000008202C0908208B
:1001C00060DD001000100820001008200000000072
:1001D0007047000008ED00E0E0170020886E002066
:1001E000A1480010FD14001065480010F8B500BFCC
:1001F000064B0749C91A891048BF0131491003D07D
:10020000044B0BB101481847704700BFE0170020AE
:10021000E01700200000000008B5054B1BB10549A0
:100220000548AFF30080BDE80840FFF7E1BF00BF1D
:100230000000000024670020F898001010B4144655
:10024000BAB12023B9B143F01003402213438363B2
:1002500029B1426B02F0380200F581535A612CB18A
:10026000436B03F0070300F5815043615DF8044BD5
:1002700070470023E6E70022E8E710B483B00021CE
:100280000DF1070209E0836913F0100FFBD1046838
:10029000134603F8014B01311A460029F3D09DF8AB
:1002A000070003B05DF8044B70470000204B9B69CA
:1002B00013F0100F3BD170B50BE01E4B01221A70EA
:1002C00002E01D4BC3E90045194B9B6913F0100F69
:1002D0002CD11748FFF7D1FF184B1B889BB2013375
:1002E0005A42C3F30803C2F3080258BF53429BB2F9
:1002F000134A128892B29A42DFD010490A8892B209
:10030000104EB0540B8019234FF0010242EC4030E4
:1003100002F0BEFA47F23053C41841F10005002D37
:10032000CFDA4FF0FF346FF00045CAE770BD704779
:1003300000000740856E002070190020686E0020C4
:100340006A6E00204C6C002070B584B005460C46E7
:1003500001AB02AA03A902F0E5FC18B954B9204682
:1003600004B070BD0646019A0299039802F0A8FCF9
:100370003446F4E72946014801F0A8FAF89800103D
:10038000030143EA101042B2C0F3850303F03303C4
:10039000920022F0330252B21343C3F3460000F03E
:1003A00055005B0023F055035BB21843C0B27047A1
:1003B0000023044A1370044A1370044A1370044A59
:1003C00013707047716E0020726E00206F6E0020F7
:1003D000706E0020044B1B7823B90123034A13706D
:1003E000014A1370704700BF836E0020826E0020A8
:1003F00008B500E020BF134A4FF00101D2E8CF3F1B
:10040000C2E8401F0028F9D1DBB2002BF2D14FF433
:1004100016620D490D4809F01FF84FF463620C494C
:100420000C4809F019F80023064AC2E88F3F0A4A2F
:1004300013700A4A13700123094A1370094A137092
:1004400008BD00BF756E0020C0200020202A0020BB
:1004500098330020C8410020826E0020836E002067
:10046000DC110020806E0020F0B585B0224C0A21FE
:10047000204607F00BFD204607F054FD02F034FD46
:10048000002627E01D4B1B786BB3FFF7B1FF2AE076
:1004900005EB8503180159004FF4967303FB041113
:1004A00004EB84034FEA032C00974FF42073039A64
:1004B0006244DFF858C00CEB8101DFF854C060449F
:1004C00009F0CEF90134022CE2DD03A90C4802F058
:1004D000B7FA0136B6F5F07FD0D203A9094802F089
:1004E000B4FA002ECED0350906F00F03064F07EB05
:1004F00003270024E7E700BF58500020826E002049
:10050000CC520020DC52002018530020C8410020AB
:10051000202A002008B5084B1B782BB9074B1B7805
:1005200013B9074B1B7933B1FFF754FFFFF760FF97
:10053000014B00221A7008BD746E0020786E0020F6
:10054000406C00204F2807D81D2905D801EB8101F8
:1005500000EB0110014B1A54704700BFC02000206F
:100560004F282AD81D2928D8F0B501EB810100EBCE
:10057000011400F007008100E40800251AE002F0F1
:10058000030C980000F00C004CEA000C4FF4967E2F
:100590000EFB054E094F57F82E000F268E4020EA1D
:1005A00006000CFA01FC40EA0C0047F82E00920805
:1005B0009B080135022DE2DDF0BD70479833002025
:1005C00038B500E020BF1A4A4FF00101D2E8CF3F12
:1005D000C2E8401F0028F9D1DBB2002BF2D14FF462
:1005E00063620021134808F0BFFE002512E005EB0E
:1005F000850213012344104A2021D1540F4B1B784C
:100600000F4A127829462046FFF7AAFF01344F2CE3
:10061000EDD901351D2D01D80024F8E7094A002342
:1006200013805380024AC2E88F3FFFF7D3FE38BDE4
:10063000756E002098330020C0200020776E0020C7
:10064000C8110020406C002038B500E020BF334ABC
:100650004FF00101D2E8CF3FC2E8401F0028F9D196
:10066000DBB2002BF2D12E494FF41162A1F1500000
:1006700008F0FCFD00234F2B06D803F51162294931
:10068000202088540133F6E700240DE04FF49673E0
:1006900004FB03F3244800EB83004FF4916200F164
:1006A000280108F0E3FD0134022CEFDD002511E004
:1006B0004FF4967303FB02C31B4C54F823100F2016
:1006C00000FA0EF021EA000144F823100132022A58
:1006D000EEDD01354F2D09D805F5116C05F0070E3B
:1006E0004FEA8E0E4FEADC0C0022F0E700244F2C7C
:1006F00009D80E4B1B780E4A12781D212046FFF7B1
:100700002FFF0134F3E7054B0022C3E88F2F094B7D
:1007100001221A70FFF7FEFE38BD00BF756E002083
:1007200010210020C020002098330020776E002088
:10073000C8110020746E002008B50A4A00231380F7
:10074000538801339BB253801D2B05D8064B0122E1
:100750001A70FFF7DFFE08BD13461D225A80FFF70F
:1007600073FFF3E7406C0020746E002030B90F4B2C
:100770003F221A700E4B00221A707047A0F11E0221
:10078000D2B2072A06D8A0F11E030A4AD25C074B50
:100790001A707047A0F12802D2B2072A05D8A0F13A
:1007A0002803054AD25C024B1A707047C81100201A
:1007B000776E0020A8A50010A0A5001070B5054612
:1007C0000C46413A342A3BD8DFE802F0708294A606
:1007D0003A3A3A3B3A1B233A3A3A3A3A3A3A3A3AAE
:1007E0003A3A3A3A3A3A3A3A3A3A3A3A3A3A3A3A69
:1007F0003A3A3A3A3A3A3A3A583A3A3A3A3A5A3A1B
:10080000620001291CD10378022B19D1FFF7D8FE11
:1008100016E04A4B1C880EE0484D2022698820468D
:10082000FFF790FE464B1B78464A127869882046AF
:10083000FFF796FE01344F2CEED9434B01221A707C
:1008400070BD0029FCD0037863B1013B9BB23B4AE9
:100850005380012CF4D96B7833B1013B9BB2374AFA
:100860001380EDE70023F2E70023F8E7A85DFFF728
:100870007DFF0136F6B2A642F8D3E1E70026FAE79B
:100880002E4B1988314A11605A88314B1A60D7E7CC
:100890002E4B1B68B3F1FF3FD2D02D4A1268B2F144
:1008A000FF3FCDD025490B804A80C9E719B10278B6
:1008B00012B9012200E00122204B5B88934203D34E
:1008C0009B1A1E4A5380BBE71C4B00225A80B7E795
:1008D00019B1037813B9012300E00123174A5288A4
:1008E00099181D2902DC154A5180A9E7134B1D22D6
:1008F0005A80A5E719B1037813B9012300E0012359
:100900000E4A128899184F2902DC0C4A118097E789
:100910000A4B4F221A8093E719B1027812B90122CB
:1009200000E00122054B1B88934203D39B1A034A24
:10093000138085E7014B00221A8081E7406C00207C
:10094000776E0020C8110020746E0020D81100209E
:10095000D41100202DE9F04F85B005468A469C4B06
:100960005B88112B0ED801339CB29A4B01221A805E
:1009700004F1FF391FFA89F9974BA3F8009000267C
:1009800027464EE01224F0E74FF4967101FB074131
:10099000DFF8689259F8211021FA0EF18000C0B2F8
:1009A00001F0030940EA09009200D2B2C1F38101CB
:1009B0000A43013F002FE7DADDF804900CEB0C143A
:1009C000864901EB440101F80800854901EB440127
:1009D00001F808200133DBB2212B1FD898465C1C9C
:1009E000B44609EB06024F2CF4D81D2AF2D802EBCC
:1009F000820204EB02147B4A105D06EB06117A4A70
:100A000002EB4102D05404F0070E4FEA8E0EE408C8
:100A1000022700221046CDF80490CBE75F4601364E
:100A2000F6B20B2E02D80023BB46D5E73C462B225C
:100A300049460120FFF786FD002607E02D22664B80
:100A40001988B01CFFF77EFD0136F6B21F2EF5D9CE
:100A5000604B18882B22604B19882030FFF772FDFD
:100A60000026A0460FE008EB06075A4C7C223946C8
:100A70002088FFF767FD20887C2239462030FFF769
:100A800061FD0136F6B2092EEDD94446524B198864
:100A90002B220A314F4B1888FFF754FD002608E03F
:100AA0004D4B19882D220A31B01CFFF74BFD013642
:100AB000F6B21F2EF4D9474B1888474B19882B22C2
:100AC0000A312030FFF73EFD00260EE0B71CAA5D7C
:100AD00021463846FFF736FD444B1B78444A1278CE
:100AE00021463846FFF73CFD0136284608F02AFD2E
:100AF000B042EBD84FF0000943E04FEAC907FFB21C
:100B00004744FFB24FEA8806023609EB0405ADB24E
:100B10000135ADB23B46374A042103A803F060FE1D
:100B20009DF80C2029463046FFF70CFD06F1010B1D
:100B30009DF80D2029465846FFF704FD3B463F220D
:100B400029463046FFF70CFD3B463F2229465846D2
:100B5000FFF706FD0236DB2229463046FFF7F2FC9E
:100B60003B463F2229463046FFF7FAFC08F10108D0
:100B70005FFA88F8B8F1070FBFD909F101095FFAE8
:100B800089F9B9F1070F02D84FF00008F2E7002504
:100B900011E0AF1C04F109061AF805203146384669
:100BA000FFF7D0FC114B1B78114A127831463846BA
:100BB000FFF7D6FC0135504608F0C4FCA842E8D83F
:100BC0000D4B01221A70FFF7A5FC05B0BDE8F08FB0
:100BD000406C0020646E0020666E00209C6A00203D
:100BE0006C670020C020002004690020776E002080
:100BF000C81100202C990010746E0020983300203A
:100C00002DE9F04100272AE04FEA071807EB071308
:100C10005A00184B13441A5D31462846FFF792FCE0
:100C20004346D9194A00144911441046134A024454
:100C30000B5D125D31462846FFF792FC0134E4B2A9
:100C4000212C0AD80E4B1D8825440E4B1988CE192D
:100C50004F2DF3D81D2EF1D8D6E70137FFB20B2F59
:100C600001D80024ECE7084B01221A70FFF752FC70
:100C7000BDE8F081046900206C6700209C6A0020B8
:100C8000646E0020666E0020746E00202DE9F0472F
:100C900088B0724B5B88102B15D801339CB26D461F
:100CA0006F4E0FCE0FC596E80F0085E80F006D4B15
:100CB00001221A8004F1FF381FFA88F86A4BA3F862
:100CC000008000254DE01124E9E74FF4967000FB09
:100CD00001E0DFF8B4A15AF82000F8404FEA8C0C8C
:100CE0005FFA8CFC00F0030A4CEA0A0C9200D2B2C4
:100CF000C0F38100024301390029E6DA06EB061051
:100D00005A4901EB400101F809C0594901EB400182
:100D100001F809200133DBB2212B20D8994603F1D9
:100D2000010E2E4608EB0502BEF14F0FF2D81D2A28
:100D3000F0D802EB82020EEB021E4E4A12F80E00B1
:100D400005EB05114C4A02EB4102D0540EF00707A7
:100D5000BF004FEADE0E022100229446CCE70135A7
:100D6000EDB20B2D01D80023D6E72B2241460120FE
:100D7000FFF7E8FB002507E02D223B4B1988A81C54
:100D8000FFF7E0FB0135EDB21F2DF5D9354B188883
:100D90002B22354B19882030FFF7D4FB00250EE0BD
:100DA0006619304F7C2231463888FFF7CBFB3888F4
:100DB0007C2231462030FFF7C5FB0135EDB2072D0F
:100DC000EED9294B19882B220931264B1888FFF7B9
:100DD000B9FB002508E0244B19882D220931A81CF5
:100DE000FFF7B0FB0135EDB21F2DF4D91D4B18886C
:100DF0001D4B19882B2209312030FFF7A3FB4FF040
:100E0000000815E0AF1C04EB08061AF8052031466F
:100E10003846FFF797FB194B1B78194A1278314671
:100E20003846FFF79DFB01354D45EBD308F101082E
:100E3000B8F1070F0AD808AB03EB880353F820ACCE
:100E4000504608F07FFB81460025EDE70D4B01225F
:100E50001A70FFF75FFB08B0BDE8F087406C002018
:100E6000B0B50010646E0020666E00209C6A002001
:100E70006C670020C020002004690020776E0020ED
:100E8000C8110020746E002098330020F8B5044685
:100E9000934B01221A7001F0FBFC924BC3E9000155
:100EA000914B1B78002B42D1904B5B7A0BB10D2CF0
:100EB00054D08E4B00225A72DB790BB10A2C51D0E0
:100EC0008A4A127A0AB10D2C4FD023B10A2C02D0D3
:100ED000864B0021D97122B10D2C02D0834B002208
:100EE0001A72824B5B79002B78D05B2C41D07F4B00
:100EF0009B79002B6ED0A4F13003DBB2092B3ED9D5
:100F00003B2C46D07A4B1B787A4A0021D1541BB136
:100F1000794B1B78032B53D92246774B19787748A6
:100F2000FFF74CFC714B00225A719A7155E0744ED8
:100F3000744D754B1A7831682868FFF703FB734BC3
:100F40001B78734A127831682868FFF709FB664BF3
:100F500000221A706F4B01221A70A5E7634B002222
:100F60005A723AE0614BDA7137E0604B00221A7234
:100F700033E05E4B01229A71FFF71AFA2DE05C4BC9
:100F80001B780E2B29D8591C594A1170594AD45430
:100F900023E0574B1B78574A0021D154564B1B78FE
:100FA000032B03D9524B00221A7016E0104607F0AB
:100FB0004FFD514A1378591C1170504AD054F1E733
:100FC000104607F045FD4C4A1378591C11704B4AE6
:100FD000D054A1E7454B00225A71F8BD4E4B1B7807
:100FE00083B94E4B1B78002B47D14D4B1B78002B00
:100FF00000F0C880313C052CEFD8DFE804F0A1AF49
:10100000B3B7BBBFA4F13003DBB2092B03D8454B08
:101010001B78012B0BD9082C27D01B2CDDD1FFF717
:10102000EFFD00233C4A13703E4A1370D5E75A1C6B
:10103000D2B23C490A703C49CC54022ACDD10A783C
:101040004B78303A02EB820203EB4203DBB2303BD7
:10105000DBB23F2B01D8354A1370FFF7D1FD0023D7
:101060002D4A13702F4A1370B7E72E4B1B78002BB5
:10107000D3D0013B2B4A1370AFE7A4F13003DBB2AE
:10108000092B03D8274B1B78012B0BD9082C4FD0E9
:101090001B2CA2D1FFF7B4FD0023204A1370214A74
:1010A00013709AE75A1CD2B21E490A701E49CC54DA
:1010B000022A92D10A784B78303A02EB820203EB93
:1010C0004203DBB2303BDBB23F2B01D80F4A137037
:1010D000FFF796FD0023114A1370124A13707CE744
:1010E0007B6E002068190020786E0020406C002084
:1010F0006F6E0020AC200020716E0020BC2000200C
:10110000CC110020D0110020CA110020776E0020E1
:10111000816E0020746E00207A6E0020736E0020B5
:10112000796E0020766E002094330020C8110020D4
:10113000714B1B78002BABD0013B6F4A13704CE70F
:101140006E4B00221A7000246D4B1C70FFF758FD87
:101150006C4B01221A716C4B1C603EE7674B0122FD
:101160001A70F0E7654B02221A70ECE7634B03221A
:101170001A70E8E7614B04221A70E4E75F4B05221E
:101180001A70E0E7614B1B78002B53D0303C092CE0
:101190003FF623AFDFE804F0050F161D242B32398C
:1011A00040475B4B0C221A705A4B00221A70574B67
:1011B00000221A7011E7564B3C221A70554B002240
:1011C0001A70F4E7524B3F221A70524B03221A70E6
:1011D000EDE74F4B00221A704E4B3F221A70E6E7A4
:1011E0004B4B0B221A704B4B03221A70DFE7484B14
:1011F0003C221A70474B03221A70D8E7444B332223
:101200001A70444B00221A70D1E7414B2A221A70FF
:10121000404B00221A70CAE73D4B0F221A703D4B1B
:1012200000221A70C3E73A4B30221A70394B15224C
:101230001A70BCE7A31E192B7CD8DFE803F01B7BD8
:101240007B7B0D7B447B3E7B7B372D7B7B7B7B7B62
:10125000297B7B7B7B7B7B332F4B01221A70002306
:10126000254A13702D4A138093702D492D48FFF79E
:1012700071FB76E02C4B01221A7000231E4A13707A
:10128000264A1380937026492848FFF763FB68E0DD
:101290001E4B01221A7064E0194B01221A70FFF7ED
:1012A000F5FC5EE0174B01225A715AE0FFF744FA51
:1012B000144B0122DA715A7253E0FFF73DFA114BD9
:1012C00001221A724DE00F4B1B88002B49D0013BC5
:1012D00098B20C4C208020226188FFF733F90D4B27
:1012E0001B780B4A127861882088FFF739F9104B78
:1012F00001221A7035E000BF766E0020C91100206F
:10130000796E0020406C002020500020846E002068
:10131000C8110020776E00207A6E002094330020E0
:101320003499001050990010736E002068990010D5
:10133000746E00203E4D224669882888FFF702F926
:101340003C4B1B783C4A127869882888FFF708F9DB
:101350002B8801339BB22B80384A012111704F2B0F
:1013600030D8334B1B79002B54D0354B1B78002BD6
:1013700050D1344B1B78002B27D12D4B1888324D80
:1013800028605988314E316001EB810300EB031373
:101390002F4AD25C2F4B1A702022FFF7D3F8254C2E
:1013A0002378002231682868FFF7DAF8224B1E788C
:1013B0002778294B1B78052B18D8DFE803F0362E49
:1013C00030193234FFF7B8F9CBE7204D1E4C214BD2
:1013D0001A7829682068FFF7B5F8164B1B781F4A62
:1013E000127829682068FFF7BBF8C6E7202200E0E2
:1013F0004022164D144C29682068FFF7A3F83B469D
:10140000324629682068FFF7ABF801230D4A1370B4
:101410000A4A1370FFF77EF8DFE55F22E9E77C22D6
:10142000E7E7B222E5E73E22E3E7DB22E1E700BFA0
:10143000406C0020776E0020C8110020746E0020E0
:10144000796E0020786E0020D0110020CC11002091
:10145000C0200020CA110020C9110020816E002088
:1014600008B51B4B1A8892B21A4B1B889BB29A4242
:101470002CD0174A13889BB21749C85C13889BB2BB
:1014800001335942C3F30803C1F3080158BF4B426B
:101490009BB21380FFF7FAFC104B1B78002BE0D0B7
:1014A0000C4B1B889BB20A4A128892B29B1A03F516
:1014B00000735A42C3F30803C2F3080258BF5342F1
:1014C000802BCEDD054B00221A70CAE708BD00BF95
:1014D0006A6E0020686E00204C6C0020856E002033
:1014E00008B5054B00221A6001214FF47A7001F013
:1014F0003BFD01F0F9FC08BD00800D402DE9F84FDF
:101500000D2001F0CDFC0A2001F0D6F8AD4E0121EE
:10151000B06AFEF719FF03F083FC192000F0CBF945
:101520001923012545EC443045EC4030A64C4FF4DE
:10153000E131204601F02AFB0221284600F090F913
:10154000236B03F44043A14A136300232A46082176
:10155000204601F0ECFA0021204601F0FEFA9C49F9
:10156000212000F009FB2946212000F0DBFA0022AF
:1015700029462046FEF762FE964C204640F83C6B1A
:101580002822002107F0F0FE934BE36365640223F9
:10159000A3640C23E36412232365102363650E23E5
:1015A000A36500F007FA054600F004FA0246294652
:1015B000204606F0E1FB00250FE0884B03EB051306
:1015C00005EB0426185DFEF7DBFE854B98550134CC
:1015D000E4B20F2CF1D90135ADB2FF2D01D80024B2
:1015E000F7E7804B00241C605C601C8101221A71AB
:1015F0007D4B1C607D4B1C607D4B1C607D4B1C60DB
:10160000FEF7DEFFFEF7F4FE7B4B10221A607B48EC
:1016100006F09AFAFFF764FF794B1C6001F038F985
:101620000446884690E06F4B18886F4A10605988CE
:101630006E4B196001EB810C00EB0C1C714B13F825
:101640000C20714B1A700CF0070E4FEA8E0E4FEA09
:10165000DC0C6E4B00221A70022213E04FF49673DA
:1016600003FB02C36A4F57F8233023FA0EF3DFF867
:101670009C9199F8007003F0030343EA870389F80B
:101680000030013A002AE9DA2022FEF75BFF614FC1
:101690003B7800225549096853480068FEF760FF0F
:1016A0005D4B93F800A097F800B05C4B1B78052BBE
:1016B00004D8DFE803F0857D7F058183202200E0E8
:1016C0004022DFF82891484FD9F800103868FEF71B
:1016D00039FF5B465246D9F800103868FEF740FFE4
:1016E0004F4B01221A704F4B01221A70FEF712FF66
:1016F000FFF7B6FE2B1B66EB080118464A4A9A42D2
:101700004FF000028A4102DA484A00241470484A25
:10171000D2E90089474A526A91450AD8454CA46AE1
:10172000444501D2914504D019224FF0000444EC05
:101730004020414A1488A4B2404A128892B294428E
:1017400000F080802C46B04601F0A2F805460E4617
:1017500001F0CAFB234B1B79002BC9D0384B1B78F7
:10176000002BC5D1264B1A6801321A601B68312B39
:10177000BED9234B00221A60294B1B78002B3FF463
:1017800052AFDFF86890184F1F4B1A78D9F8001045
:101790003868FEF7D7FE1F4B1B781C4A1278D9F821
:1017A00000103868FEF7DCFE1D4B00221A709AE725
:1017B0005F2286E77C2284E7B22282E73E2280E72E
:1017C000DB227EE79C0D0020000007400010074050
:1017D000AD0200105850002000002050B0A50010AD
:1017E00018530020406C0020D0110020CC110020A4
:1017F000D8110020D4110020008006406904001098
:1018000020500020C0200020CA110020816E00203E
:1018100098330020776E0020C8110020C9110020E5
:10182000786E0020746E0020A08601007B6E002080
:101830007019002000000B406A6E0020686E0020C6
:10184000796E002042F21072934271F10003BFF6EC
:1018500079AF101A61EB410101F022F872E700BF85
:101860000C4B03EB800253F8203083F0400303F06D
:10187000C00302F5805CCCF80030C00000F180406D
:1018800000F52030416002F540524FF48073136040
:10189000704700BF04800340C00000F18040043066
:1018A00000F520331B6883EA013303F4405300F54D
:1018B00024300360704708B54FF0000242EC44004A
:1018C00042EC40000521FFF7CBFF08BD0FB400B587
:1018D00083B0049C074803F0F9F83CB105A90191D5
:1018E000204603F003F9044803F0F0F8012002F069
:1018F0009DFF00BF1C9A00102C9A0010EFF310807F
:1019000072B6064BD3E8CF1F01220029FAD1C3E8F3
:10191000412F0029F6D1BFF35F8F7047971C00203D
:101920000023034AC2E88F3F80F31088704700BF4E
:10193000971C002070B505460C461646FFF7DEFFE3
:10194000E208A95C04F0070C012303FA0CF3194226
:1019500005D1DBB20B43AB54FFF7E2FF70BD21466C
:101960003046FFF7B3FFF8B506460D4614461F464E
:10197000FFF7C4FF00E00134BC420ED84FEAD40C9C
:1019800016F80C1004F0070301229A401142F2D11C
:10199000D2B20A4306F80C2001E04FF0FF34FFF703
:1019A000BFFF002C01DB2046F8BD002DFBD00698C0
:1019B000FFF78CFF054A1078431CDBB21370172B1E
:1019C00002D9134610221A70704700BFDD110020A3
:1019D00000B583B00146054B00931F23182204482D
:1019E000FFF7C1FF03B05DF804FB00BF309A0010A1
:1019F000883300204FF0E022936843F00053936057
:101A000070470000002305E0044A1A440021C2E8A0
:101A10008F1F01331F2BF7D9704700BF8C1C00208C
:101A2000064B9B68103043F82010BFF35F8F0023F4
:101A30000349C1E88F3F82F31088704700ED00E052
:101A4000951C00200048704700E400E008B5FFF74F
:101A5000F9FF002304E04FF0803240F8042B0133FB
:101A60000C2BF8D908BD000008B50388DA0A1C2A37
:101A700006D15B050BD45B15023300EB430008BDB8
:101A8000064B074A40F21511064802F0EFFE03F537
:101A9000FF1303F5FF531F33EDE700BF4C9A00100F
:101AA000F8B50010649A001008B5091A01F2FC722A
:101AB00040F6FE739A4208D8081F11F0010F04D1B6
:101AC000C0F34A0040F4604008BD034B034A40F2B3
:101AD0000711034802F0CAFEA89A0010ECB50010E6
:101AE000649A00104209064B53F8223000F01F00A0
:101AF0000122824003EA0200003818BF012070472B
:101B000000E100E03AB1064B00F1600243F8221018
:101B100043F8201070472030014B43F820107047E5
:101B200000E100E008B50A4600F01F0301219940DA
:101B30004009FFF7E7FF08BD00F01F02400901233D
:101B400093404030014A42F82030704700E100E005
:101B5000024B9B68103053F82000704700ED00E006
:101B600008B5FFF7F5FF034BC01A2F288CBF0020E4
:101B7000012008BDE011002070B505460C46EFF3CA
:101B8000108672B60F4BD3E8CF1F01220029FAD17D
:101B9000C3E8412F0029F6D1BFF35F8FFFF7D8FFCD
:101BA000094B984201D0A04205D132462146284631
:101BB000FFF736FF70BD054B054AE721054802F0E7
:101BC00055FE00BF951C00201D010010D89A001082
:101BD00020B60010649A00102DE9F04F87B00091F4
:101BE0001546EFF3108A72B67C4BD3E8CF1F012263
:101BF0000029FAD1C3E8412F0029F6D1BFF35F8F46
:101C0000774B93F90040002C44DB804604EB4407FB
:101C1000744B03EB870797F90610714A1170724AEB
:101C2000926800F1100152F82190A9EB03022F2ACB
:101C30003ED96E4B994534D14FF42143ADF80C3069
:101C40004FEA440904EB4400664E06EB8000684905
:101C50000230FFF729FFADF80E004BF60153ADF847
:101C60001030FF238DF812308DF81350009B059330
:101C7000A14406EB890306AA12E9070083E80700DE
:101C800047F00109524649464046FFF7C9FE07B0F2
:101C9000BDE8F08F574B584A40F27311574802F095
:101CA000E5FD574B544A4FF4BD71544802F0DEFD38
:101CB00029F0010BABEB0303524AA2FB0312D2083B
:101CC00002EB4202B3EB820F0FD15B460026DA79BA
:101CD000AA4212D993F90620002A0DDB02EB420238
:101CE0001E46404B03EB8203F1E7474B424A40F26A
:101CF0008B11424802F0BAFD1E46A6B344F601031A
:101D0000ADF80C304FF48F43ADF80E3096F906B0B5
:101D1000BBF1000F1ADA4BF60150ADF810008DF848
:101D200012B08DF81350009B05933946301DFFF714
:101D3000BBFEB080B47104EB44042A4B03EB840374
:101D400006AA12E9070083E807009BE7301DFFF7AA
:101D50008BFE014604EB4402224B03EB8203181D69
:101D6000FFF7A2FED9E74FF42143ADF80C30630032
:101D7000019304EB4406DFF86C9009EB86061C49DE
:101D8000B01CFFF791FEADF80E005946301DFFF76D
:101D90008BFEADF810004AF6AA235A464946521A5D
:101DA000524153431B0D8DF812308DF81350009A99
:101DB0000592019B234409EB830906AB13E9070055
:101DC00089E8070044F60103ABF800304FF48F4375
:101DD000ABF8023047F0010954E700BF951C002022
:101DE0007C6E0020E011002000ED00E01D010010DD
:101DF00010120020109B001008B60010649A00100A
:101E0000389B0010ABAAAAAA609B001038B540F01E
:101E10000104324BE31A2F2B31D8EFF30581C9B2FD
:101E2000002933D0EFF3108E72B62D4BD3E8CF5F7D
:101E30000122002DFAD1C3E8452F002DF6D1BFF3C2
:101E40005F8F4AF6AA230246244D521B5241534348
:101E50001B0D4FFA83FC234B9B6853F82130A342A0
:101E60001BD00023032B32D803EB43011B4A02EBA8
:101E7000810292F90620624520D00133F2E71A4B25
:101E80001A4A4FF41D711A4802F0F0FC194B174A18
:101E900040F27721164802F0E9FC124B9B68164A83
:101EA00043F82120154B1A78827183F800C0002373
:101EB0000B4AC2E88F3F8EF3108838BD074A02EB09
:101EC0008101FF248C714BF601538B80EAE70C4BA8
:101ED000064A4FF42271064802F0C8FCE0110020C7
:101EE000951C002000ED00E0E49B0010D0B5001030
:101EF000649A00100C9C00101D0100107C6E0020E4
:101F0000189C001000B583B00146074B00930523D1
:101F100000220648FFF727FD002801DBC0F133004F
:101F200003B05DF804FB00BF209C0010866E00200B
:101F3000014B0B44036070478C1C002010B5044615
:101F4000FFF738FD01462046FFF7F2FFFF2323711C
:101F5000BFF35F8F10BD10B50446FFF72BFD0146A0
:101F60002046FFF7E5FFFF23237100236371BFF3D2
:101F70005F8F10BD10B50D4C09E00D4B0D4A1A21B5
:101F80000D4802F073FC2046FFF7D8FF08340B4BD6
:101F90009C4209D22368002BF5D0012BEDD12046BD
:101FA000FFF7D9FF0834F2E710BD00BFD0170020BB
:101FB0003C9C001060B600105C9C0010E0170020F4
:101FC000024B0B440360BFF35F8F70478C1C0020F3
:101FD00010B504460120FFF7FBFC01462046FFF741
:101FE000EFFF10BD0246EFF30583DBB2103B99080B
:101FF00004D0034803F00303136070470148F9E776
:1020000000800B4000000B4010B4846AA2EB040C6B
:102010000B1D50F823301B1B9C4504D3046A01237D
:102020008B401C4202D1043140F821205DF8044B62
:10203000704741EA004070470D4B1A68EFF310817A
:1020400072B6D2E8CFCF0120BCF1000FF9D1C2E8BF
:102050004C0FBCF1000FF4D1BFF35F8F1A6800235F
:10206000C2E88F3F81F3108840BF002000217047F5
:10207000346C00202DE9F04F85B003A8FFF7B2FFC4
:10208000954B984214BF00230123039901EB83036E
:10209000924A52F823402378994206D105460122FC
:1020A0008A4000F541535A602CE18D4B8D4A9221B4
:1020B0008D4802F0DBFBD4F8149006EB46074FEA9C
:1020C000C70A09EBC707D7F808B0D7F80C8028462D
:1020D00000F0B4FBB0EB0B0061EB0803002BC0F287
:1020E0001A81B8F1000F64DB3B691A4600937F4BFD
:1020F0009A4230D0798889B2B4F90800FFF799FF85
:102100007969009B9847009001910099019A51EAE2
:1021100002034ED01346002A29DABBEB010268EB1A
:102120000308BA60C7F80C8039F90A70002FC0F2B2
:10213000F280D4F814E007EB47030EEBC303996871
:10214000DB68511A68EB0303002BC0F2E480A4465D
:102150002CF8087F17E07A691369009210469847B7
:1021600038B3009A1368009353680193CDE728466B
:1021700000F064FB009B1A18019B43EB0108D0E7B9
:102180009C463EF90B70002F0EDBBCF9003003EBD0
:1021900043034FEAC30B0EEBC3039868D968101AC8
:1021A00068EB01010029EBDA29F80A70ACF800604D
:1021B000B1E039F90A3023812369EFF3108272B656
:1021C000D3E8CF0F01210028FAD1C3E8401F00282F
:1021D000F6D1BFF35F8FB4F9023029F80A30668078
:1021E00021690023C1E88F3F82F3108893E02369BF
:1021F000EFF3108272B6D3E8CF0F01210028FAD195
:10220000C3E8401F0028F6D1BFF35F8FB4F8048005
:102210000FFA88F84FF6FF73A38021690023C1E805
:102220008F3F82F310881AE01F4630F90A60002EB3
:102230000FDBB7F9003003EB43034FEAC30A00EBAF
:10224000C3039968DA68BCEB01016EEB0202002A55
:10225000EADAA7F8008030F9098020F80960B8F1BF
:10226000000F5DDB606908EB48034FEAC30900EB30
:10227000C303D3F808C0D3F80CE004F10807B4F99D
:102280000860D4E70023A37104F1080CB4F9083006
:1022900010E04FF0FF384FF0FF39C0E90289B4F980
:1022A0000800984205D0ACF80020B4F90800C853E3
:1022B00023811346B3F1FF3F35D0616903EB43023D
:1022C000D70001EBC20031F93220468816F4004FE6
:1022D000DFD18446EDE700BF00800B40446700205B
:1022E000F09C00108CB600101C9D00107520001092
:1022F000284600F0A3FA3F1A66EB0106012F76F19B
:10230000000628DA039A01239340EB63B4F90860CE
:10231000002EBFF6D0AEA38813F4004F3FF467AF92
:10232000A379002BAED1B4F90830002B13DB62691E
:1023300003EB430302EBC3039F68DE68B6F1FF3F84
:1023400008BFB7F1FF3FD3D03A463346039928463A
:10235000FFF75AFECCE740BF05B0BDE8F08F00BFE5
:10236000F8B504460D4611460A4B984210D0002697
:102370002E44012707FA05F525623046FFF7FCFBDE
:1023800039463046FFF7CEFB04F501542560F8BD11
:102390000426EDE700800B40F8B504460E461746CC
:1023A0001D46C160FFF706FB164B034423612770EF
:1023B000ABB263814FF05042127862704FF6FF72F9
:1023C0002281A280013B63804FF0000C08E00CF1F9
:1023D000FF300CEB4C0E636923F83E000CF1010C4E
:1023E000AC45F4D3084B9E4214BF0023012307EBF6
:1023F0008303064A42F82340054A39463046FFF730
:10240000AFFFF8BD8C1C002000800B40446700200B
:102410007520001008B5054B1B690BB1034808BDBA
:10242000034B044A6521044802F020FA28120020D8
:102430005C9D001074B600101C9D0010F8B5044699
:102440009E460069EFF3108172B6D0E8CF6F012588
:10245000002EFAD1C0E8465F002EF6D1BFF35F8FA1
:10246000B4F90250666905EB4500C70006EBC000F1
:10247000002D03DB36F907C0A4F802C04FF0000CB2
:102480002369C3E88FCF81F31088654533DB069954
:102490000161079941618260C0F80CE0418889B20E
:1024A0000131C1F30E0101B9012141802846FFF736
:1024B000C0FD2369EFF3108272B6D3E8CFCF0121BC
:1024C000BCF1000FF9D1C3E84C1FBCF1000FF4D1EF
:1024D000BFF35F8FA388F353A58021690023C1E870
:1024E0008F3F82F31088E368217801228A4003F548
:1024F00001535A60F8BD4FF0FF30FBE770B582B072
:10250000064615461C469DF8203033B900F0C0F948
:10251000854264EB010100290ADB079B0193069BBE
:1025200000932A4623463046FFF788FF02B070BD6D
:102530000020FBE7F0B585B005460C4616461F4661
:10254000FFF768FF9DF828300293019700962A460E
:102550002346FFF7D3FF05B0F0BD03464089B0EB3B
:10256000214F31DD10B50A14586902EB420200EB2D
:10257000C2001A69EFF3108C72B6D2E8CF4F5FF049
:10258000010E002CF9D1C2E844EF002CF5D1BFF3C5
:102590005F8F428892B289B28A420FD000201969B7
:1025A0000022C1E88F2F8CF3108830B1DA681B78D5
:1025B0000121994002F50153596010BD42F40042D7
:1025C000428001209871EAE70020704710B5044668
:1025D000FFF720FF2146FFF7C0FF10BD407870478E
:1025E000F0B583B0EFF30583DBB2CBB904460D46FB
:1025F000861F41F1FF37B04271EB070301D200267D
:10260000374600F045F9301A67EB0103012873F1F2
:10261000000308DA2046294600F04CF903B0F0BD6B
:102620001848FFF753F900230093174A30463946FC
:10263000FFF780FF002819DAECE7144B1A68EFF374
:10264000108172B6D2E8CFCF0120BCF1000FF9D1D2
:10265000C2E84C0FBCF1000FF4D1BFF35F8F1A68D2
:102660000023C2E88F3F81F3108820BF084B5B6ACC
:102670009F42E2D8064A926AB242CBD29F42C9D167
:10268000DBE700BF809D001039200010346C002073
:1026900000000B4038B504460D4600F0F9F820184C
:1026A00045EB0101002902DBFFF79AFF38BD4FF02F
:1026B000FF306FF00041F7E708B5C30E4101091A7A
:1026C00063F100039B0043EA91738900091843F109
:1026D0000003DB00C80043EA5171FFF7DBFF08BDD0
:1026E000F0B583B005460C46EFF30583DBB293B13A
:1026F000384B5B6A8B4209D3364A926A824208D2CF
:102700008B4201D0012002E0002000E0002003B055
:10271000F0BD0120FBE7FFF77DFEC768067838466D
:1027200000F08CF82A1A64EB0101043657F82630C1
:102730001B1A9A4271F1000112DB20BF254B5B6A24
:102740009C4209D8234A926AAA4207D29C4201D0ED
:102750000120DCE70020DAE70020D8E70120D6E7F7
:10276000002300931C4A28462146FFF7E3FE002879
:1027700018DD184B5B6A9C4205D8164A926AAA4239
:1027800002D29C4200D120BFFFF720FF114B5B6AB1
:102790009C421BD80F4A926AAA4219D29C4213D07B
:1027A0000120B4E70B4B5B6A9C4209D8094A926A44
:1027B000AA4207D29C4201D00120A8E70020A6E748
:1027C0000020A4E70120A2E70020A0E700209EE768
:1027D00001209CE700000B403920001000487047A2
:1027E00000000B4010B50A4B1B6923B10A210948B0
:1027F000FFF79EFB10BDFFF7F1FF0446032100F039
:102800000BF81023032221460148FFF7C5FDEDE731
:1028100028120020346C002010B5054A054C064BE8
:10282000A04214BF1846581CFFF784F810BD00BF23
:10283000D09D001000800B408C3300200246436A7C
:10284000906A1946536A9942FAD17047416A00E08A
:10285000416A9942FCD300E0416A994202D1816AFF
:102860009142F9D3704770B5064614461D46FFF7EE
:10287000E5FF021941EB0503824273EB010102D22D
:102880004FF0FF3213463046FFF7E0FF70BD000007
:1028900008B50248FFF7D2FF08BD00BF00000B409B
:1028A00008B502460B460248FFF7DDFF08BD00BF32
:1028B00000000B4008B502460B460248FFF7C6FF72
:1028C00008BD00BF00000B4008B5C2898A4204D38E
:1028D0004268808901FB002008BD034B034A19218F
:1028E000034801F0C3FF00BFF49D0010A4B6001020
:1028F000109E001070B504460E460CE0B4F80EC0F1
:102900009C4521D1002A37D021680023C1E88F3FA0
:1029100085F3108820BF2368EFF3108572B6D3E8E3
:10292000CF0F01210028FAD1C3E8401F0028F6D1BB
:10293000BFF35F8F21896389CB1ADFD5B4F80EC04E
:102940000CF1010C6344D9E72046FFF7BDFFA289D3
:10295000314606F081FD238901339BB2E28993421F
:1029600000D90023238122680023C2E88F3F85F32A
:10297000108840BF012070BD21680023C1E88F3F4F
:1029800085F310881046F6E770B504460E460AE057
:10299000002B21D1002A39D021680023C1E88F3FC4
:1029A00085F3108820BF2368EFF3108572B6D3E853
:1029B000CF0F01210028FAD1C3E8401F0028F6D12B
:1029C000BFF35F8F238961895B1AE1D5B4F80EC02C
:1029D0000CF1010C6344DBE73EB12046FFF774FFC6
:1029E0000146A289304606F037FD638901339BB268
:1029F000E289934200D90023638122680023C2E860
:102A00008F3F85F3108840BF012070BD21680023EF
:102A1000C1E88F3F85F310881046F6E770B504468D
:102A20000D4616461946FFF783FA2946701C00F03A
:102A3000D1FD6060E681A58100232381638170BDA3
:102A400008B50122FFF756FF08BD08B50122FFF7C0
:102A50009BFF08BD074B98420AD01A2301229A40D7
:102A6000054B1A60054B9B6832EA0303FAD17047A5
:102A70001B23F3E7008007400030024000000240C3
:102A800038B5046B14F0010F01D1204638BD00F5B4
:102A9000405340F201321A63436A856A05EB83159D
:102AA000AD02062000F006F9044BA3FB0030C00A7B
:102AB000B5FBF0F00021FFF7F3FEE6E7757B2B8F07
:102AC00070B505460C461646FFF7DAFFEB6A5C4028
:102AD000344005F58153DC60286370BD70B5054650
:102AE0000C46062000F0E6F8C300B3FBF4F3013314
:102AF000DC0907D04FF6FE72944214D82646C3F381
:102B0000450400E001266E62AC62002211462846B0
:102B1000FFF7D6FF062000F0CDF8800004EB861406
:102B2000B0FBF4F070BD00244FF6FF76EBE708B57C
:102B3000A1F1050C511EC90041EA4C113BB141F015
:102B40000201012B01D0002302E0042300E0002356
:102B50006E221943FFF7B4FF08BD08B501B110217B
:102B60001022FFF7ADFF08BD49B10A22054B98427C
:102B700014BF00200120044B23F8102070474FF4AD
:102B80008072F3E7008007404C6E002038B50446A1
:102B90000D46062000F08EF8F8B1114B9C421DD076
:102BA0001A22012393400F4A13602046FFF752FF79
:102BB00000212046FFF7D8FF29462046FFF78EFF69
:102BC000E36A83F0700303F07E0304F58152D3605F
:102BD00040F2013323630323A36438BD1B22E0E7E3
:102BE000008007400020024070B51646049D00EBAF
:102BF000400C4FEA8C0C0CF1804C0CF5803CDCF85E
:102C00000420AA4201D2CCF80450A0F1040E5FFACD
:102C10008EFEBEF1010F28D90CF540524FF400642E
:102C200014601E4A52F8202042B11C4C6469B4FB67
:102C3000F2F4013404EB4404033CFDD2DCF8002040
:102C400082EA461202F0E0020CF580542260BEF1E6
:102C5000010F16D90CF500524FF400611160CCF849
:102C600004500E4A42F8203070BD0129D4D10CF531
:102C7000405203241460DCF8082012F0010FFAD04F
:102C8000DCE7DCF800204A4002F003022260DCF8B6
:102C9000084001228A401442F9D0DBE7F84F0020B7
:102CA00010B582B04FF480340094FFF79DFF02B05E
:102CB00010BD0000014B53F820007047F84F002072
:102CC000F0B583B004460D461646134F3B4601222D
:102CD00011460520FFF7E4FF00962B46224601210E
:102CE0000E4800F059F806FB05F5B4FBF5F40C4B63
:102CF000002202210420FFF7D3FF234600220121F6
:102D00000520FFF7CDFF3B46022200210620FFF7FA
:102D1000C7FF03B0F0BD00BF006CDC02000005403F
:102D2000001BB7002DE9F04104460E4617469846B1
:102D30004FF4A0751AE0013B9BB103FB00FCB2FB12
:102D4000FCFEA645F7D10CFB1E210029F3D1104A49
:102D500002FB05F535603860C8F800300120BDE899
:102D6000F081013808B10346E6E7013D0F2D0CD98B
:102D700042F6E06205FB02F2A2F53723A3F5D87311
:102D800004498B42F1D80720ECE70020E7E700BFB9
:102D9000001BB70050F80C0070B5049C344DB5FB17
:102DA000F1FC344D1544344EB54237D8B2FBFCF536
:102DB000A5F1100EBEF5987F36D803F1FF3EBEF1A7
:102DC000060F37D804F1FF3EBEF1060F32D8BCEB38
:102DD000121F35D8240344EA03440368002B35DB73
:102DE000264B984242D00E2301229A40244B1A606F
:102DF00003F580531A60234B9B6832EA0303FAD130
:102E00000160856000F5405204322123136003689D
:102E1000002BFCDAC4600823136070BD1A4B1B4AF8
:102E200011211B4801F022FD1A4B184A192118489C
:102E300001F01CFD184B154A1C21154801F016FD28
:102E4000164B124A2321124801F010FD036803F0CB
:102E50003F038B42C4D18368C3F30B03AB42BFD1A2
:102E6000C36803F4EE23A342BAD1D6E70F23BBE72E
:102E7000001BB70080E84BD380F8A93200800540E2
:102E80000020024000000240509E0010B0B600102A
:102E9000A09E0010E49E0010009F00104C9F0010A8
:102EA0000C4B0D4A5A600D4BDB6813F4004FFAD1FE
:102EB000030143F0B54343F4FC03084AD26853408E
:102EC000074A1A40074BDA60044BDB6813F4004FE3
:102ED000FAD17047002010400020FE5A0000104038
:102EE000F001FE5A00101040024B1A68024B5A6063
:102EF000704700BF1C67002000800D4008B5164BCE
:102F00004FF080421A60A3F54123144A9A6051B1F0
:102F100003F540234FF0E0621A6048B9104B4FF0C0
:102F200000421A6008BD0C4B4FF0E0621A60F4E7F3
:102F30004FF47A7303FB00F00A4B1860B0F1807F06
:102F400002D36FF07F421A60FFF7CEFF044B4FF0C1
:102F500080421A60E6E700BF00B00D40F3FFFF01BA
:102F600000A00D401C67002008B5034B034ADA613E
:102F7000FFF7C4FF08BD00BF00800D402131B76AD4
:102F800010B50C4B4FF080441C6070B140F0010351
:102F900009480A4CC4610A4C5C4004624162836285
:102FA00000211046FFF7AAFF10BD034B0021D96195
:102FB000F6E700BF00B00D4000800D40D3C007B061
:102FC0002D3FF84F054A00EB400302EB83035960A5
:102FD00000EB400080000123135070470080104038
:102FE0002DE9F04105460E46174698460023DB8A38
:102FF000002242E800F212F4800F0BD1102144F2BB
:1030000052209847044643463A4631462846A04750
:10301000BDE8F081042144F2522098470446F2E7CB
:1030200008B50023DB8A002242E800F212F4800F88
:1030300002D11021984708BD04219847FBE708B545
:10304000031E04DB41F020003AB141F030010A4692
:103050000A214FF48170FFF7C3FF0146F7E7000034
:10306000034BD3F82838002BFAD0BFF35F8F70479B
:1030700000000E40002207E0054B13449B00BFF305
:103080005F8F002119600132072AF5D9704700BF10
:103090000382031008B5FFF7EDFF08BD074B4FF49F
:1030A0002A621A604FF48D72DA6003F50053044A05
:1030B0001A60024B5B68002BFBDA7047008004400B
:1030C00000B0FA0010B5044602E054F8043B9847FB
:1030D000014B9C42F9D310BDF098001070470000DE
:1030E00008B50248FFF7EEFF08BD00BFB09800101A
:1030F00008B50248FFF7E6FF08BD00BFDC980010E6
:10310000064B074A1A6003F58053064A1A60064BBD
:103110009A68044B9343FAD1704700BF00200240E5
:103120007F3BEFEFF6FFF30300000240054BDB6C43
:10313000B3F5004F00D07047034B4FF48022DA64A0
:10314000F9E700BF00001150002011504FF0E022BD
:10315000D2F8881D034B0B43C2F8883D10EE3004B3
:10316000704700BF03033000054B6FF060421A60E8
:10317000044B9B68DB4333F06043F9D1704700BFD9
:10318000003002400000024008B545F25320FFF72E
:1031900047FF03460420984708BD08B545F2532071
:1031A000FFF73EFF03460120984708BD08B5FEF72C
:1031B00029FC08BD38B5054CA168054D4FF488724F
:1031C000284606F049F9A56038BD00BF00ED00E0D3
:1031D0000000002038B50420FFF76CFD064BA3FB70
:1031E0000035AD0C002404E02946E0B2FFF7EAFE0A
:1031F0000134052CF8DD38BD83DE1B4330B583B0C8
:10320000264B0022C3F88420FFF748FF244B0122FD
:10321000DA63224B5B6C012BFBD1214B03221A6337
:103220001E4B9B6B012BFBD10224009405231D4AEE
:1032300001211D48FFF7B0FD052500952B461B4ACF
:1032400001211B48FFF7A8FD1A4B0022214604204C
:10325000FFF726FD184C2346002201212846FFF7E0
:103260001FFD164D2B46002211460820FFF718FDC2
:103270002B46002211460920FFF712FD23460022AB
:1032800011460620FFF70CFD2346002211460720B9
:10329000FFF706FDFFF79EFF03B030BD00000140C1
:1032A00000300140002F685900000540008C86471F
:1032B00000800540001BB70080D1F008006CDC02E4
:1032C00086B003B451FC0804CDE9020151FC0904A5
:1032D000CDE9040151EC0A04CDE9060103BCF04735
:1032E000BDE800504EEC00C4BDE800504EEC01C4F7
:1032F000BDE800504EEC02C400BD000000B5FFF771
:10330000DFFF02E010FE30F4F8D441EC100443EC8F
:10331000112400EE010410EE010480EE200451ECB3
:103320001004704700B5FFF7CBFF02E010FE30F449
:10333000F8D441EC100443EC112400EE010410EE2B
:10334000210480EE200451EC3004704700B5FFF7F3
:10335000B7FF02E010FE30F4F8D410B541EC1004D1
:1033600043EC112451EC040453EC0524A0FB024C63
:103370005FF0000EE0FB03CEE1FB02CE4CEC2044FC
:103380000024E1FB03E444EC30E480EE200451EC43
:103390005004BDE81040704700B5FFF791FF02E010
:1033A00010FE30F4F8D441EC100443EC112451EC3D
:1033B0002104A0FB01126FEA820252FB100052FBB3
:1033C00012F252FB1000A0EBD07C53EC04245CFB07
:1033D00013F153EC1524A1FB022001FB030053EC75
:1033E0004424A2EB000050FB1CF24FEA111312EB35
:1033F000017043EBE27140EA515020EA915020F015
:10340000070053EC7524A0FB023C53EC752400FB31
:1034100003CC01FB02CC53EC0424ACEB824C40EA1D
:103420005C70A0F1010041EC400480EE200451ECFE
:103430007004704700B5FFF743FF02E010FE30F460
:10344000F8D440EC700400EE010410EE210480EE8C
:10345000200451EC3004704700B5FFF731FF02E063
:1034600010FE30F4F8D440EC600400EE010410EEDD
:10347000210480EE200451EC3004704700B5FFF7C2
:103480001FFF02E010FE30F4F8D441EC800400EE9F
:10349000010410EE010480EE400410EE13047047A6
:1034A00000B5FFF70DFF02E010FE30F4F8D441EC58
:1034B000800400EE010410EE010480EE400410EEE2
:1034C0003304704700B5FFF7FBFE02E010FE30F456
:1034D000F8D441EC100443EC112400EE010410EE8A
:1034E0003004C0F30070704700B5FFF7E9FE02E05A
:1034F00010FE30F4F8D443EC102441EC110400EE3B
:10350000010410EE30F48CBF01200020704700BF92
:1035100000B5FFF7D5FE02E010FE30F4F8D443EC1E
:10352000102441EC110400EE010410EE30F42CBF25
:1035300001200020704700BF00B5FFF7C1FE02E088
:1035400010FE30F4F8D441EC100443EC112400EEEA
:10355000010410EE30F42CBF01200020704700BFA2
:1035600000B5FFF7ADFE02E010FE30F4F8D441ECF8
:10357000100443EC112400EE010410EE30F48CBF73
:1035800001200020704700BF08B528B103460B4456
:10359000034A934200D808BD0248FEF797F900BFDE
:1035A00000000820689F001070B50546084E3046A0
:1035B00006F066F9284605F08FFA0446304606F014
:1035C0005BF929462046FFF7DFFF204670BD00BFAC
:1035D000D0170020F8B505460E46094F384606F0CC
:1035E0004FF93146284605F037FA0446384606F0CA
:1035F00043F906FB05F12046FFF7C6FF2046F8BD5C
:10360000D01700209A4200D288547047704720B1EA
:1036100008B50A684968904708BD70470146002010
:1036200008E000EB8000531C0B60137803EB4003B1
:10363000A3F130000A681378303BDBB2092BF0D9D4
:1036400070472DE9F04F83B005460E4693461F465E
:10365000DDF830A00D9CDDF838900F9B13F0030FC0
:1036600019D1A046019208E002F1010B3B46314618
:103670002020A84708F101085A46C845F4D3DDF8D0
:1036800004B008E0013C02F101083B4631461AF85B
:103690000400A8474246002CF4D10F9B13F0020F00
:1036A00009D1104603B0BDE8F08F541C3B463146AB
:1036B0002020A8472246A2EB0B034B45F5D3F0E7A9
:1036C0002DE9F04385B099460C9D0D9C9DF83880FE
:1036D000DDF840E0119F129E16F0020F21D17FB15C
:1036E00016F0010F0CD0B8F1000F02D116F00C0F3C
:1036F00006D0013F04E04FF0300C05F804C001345F
:10370000744501D21F2CF6D916F0010F09D0BC4226
:1037100007D21F2C05D84FF0300C05F804C0013437
:10372000F2E716F0100F14D016F4806F04D11CB11C
:10373000744522D0BC4220D00F9B102B33D00F9B5E
:10374000022B3DD01F2C0ED84FF0300C05F804C0D2
:1037500001341F2C07D8B8F1000F39D04FF02D0CD1
:1037600005F804C0013403960297019400954B4676
:10377000FFF767FF05B0BDE8F083B4F1010C1DD081
:103780000F9B102B0ED064460F9B102BD7D116F039
:10379000200FD4D01F2CD2D84FF0580C05F804C0FD
:1037A0000134CFE7023C16F0200FEDD11F2CEBD8EF
:1037B0004FF0780C05F804C00134C3E76446BBE75A
:1037C0001F2CD0D84FF0620C05F804C00134B9E7C3
:1037D00016F0040F05D04FF02B0C05F804C001348F
:1037E000C1E716F0080FBED04FF0200C05F804C05A
:1037F0000134B8E7F0B591B0169C189D1B9E0CB92A
:1038000026F0100616F4806E1DD064B34FF0000E43
:1038100019E016F0200F24D04127BC445FFA8CFC3D
:10382000ACF10A0C5FFA8CFC0EF101070EF1400EB0
:10383000EE440EF820CCB4FBF5FCAC4214D31F2FA1
:1038400012D8BE466446B4FBF5FC05FB1C4C5FFA7F
:103850008CFCBCF1090FDCD80CF1300C5FFA8CFC4D
:10386000E2E76127D9E7274606961A9C0594199C3A
:10387000049403959DF85C400294019708AC009471
:10388000FFF71EFF11B0F0BD2DE9F04F95B0099084
:103890000A910B929846DDF878B0DDF87C90229D75
:1038A000239F269E5BEA090201D126F0100616F43A
:1038B000806424D05BEA09022FD000241FE016F0B8
:1038C000200F28D041231344DBB20A3BDBB204F1C2
:1038D000010A04F150020DEB020404F8203C2A46D0
:1038E0003B465846494605F0C3FFAB4579EB07090F
:1038F00015D3BAF11F0F12D85446834689462A467B
:103900003B465846494605F0B3FFD2B2092AD6D8FD
:103910003032D3B2DBE76123D5E74FF0000A0696D9
:10392000259B0593249B049303959DF88030029377
:10393000CDF804A00CAB009343460B9A0A99099862
:10394000FFF7BEFE15B0BDE8F08F000000000000DC
:103950002DE9F04F93B004460D4617461E46DDE9AB
:103960001CAB52465B4650465946FFF7AFFD002858
:1039700040F0F3804FF0FF32AD4B50465946FFF711
:10398000F3FD002840F0E9804FF0FF326FF4801320
:1039900050465946FFF7ACFD002840F0DE8000227B
:1039A000002350465946FFF7A3FD002840F0E6806B
:1039B000CDE906AB209B13F480630F9301D106235E
:1039C0001E93DDE9062310461946CDE90A01079B3F
:1039D00052EA030100F0DC80C3F30A50C3F313037F
:1039E000904643F07F5949F44019A0F2FF30FFF7A9
:1039F00025FD7DA3D3E90023FFF7ACFC7CA3D3E92D
:103A00000023FFF77FFCCDE908010022894B4046E7
:103A10004946FFF78BFC78A3D3E90023FFF79AFC14
:103A200002460B46DDE90801FFF76CFCFFF72AFDB3
:103A30000890FFF703FD8046894671A3D3E9002370
:103A4000FFF788FC00227C4BFFF75CFCFFF71AFDB8
:103A50000A906DA3D3E9002340464946FFF77AFC5C
:103A6000804689460A98FFF7E9FC69A3D3E9002359
:103A7000FFF770FC02460B4640464946FFF756FCEE
:103A80008046894602460B46FFF764FCCDE90C01EF
:103A90000A9B03F2FF3300210022CDE90A121B0525
:103AA0000B9300230A9342464B4640464946FFF794
:103AB00029FCCDE9100142464B4600204FF08041E1
:103AC000FFF734FC8046894600225C4BDDE90C019F
:103AD000FFF766FC00225A4BFFF714FC02460B4628
:103AE000DDE90C01FFF75CFC0022564BFFF70AFCF6
:103AF00002460B46DDE90C01FFF752FC02460B467D
:103B000040464946FFF7FEFB02460B46DDE9100141
:103B1000FFF746FC00224C4BFFF7F4FBDDE90A23DC
:103B2000FFF718FC80468946CDE90A89DDE90623BE
:103B3000FFF71AFD50B1089B013B08930022404B50
:103B400040464946FFF72CFCCDE90A01089B633348
:103B5000C62B46D84FF004081EE0209B04931F9B01
:103B600003931E9B0293CDE900AB33463A462946A8
:103B7000204600F0FDF813B0BDE8F08F9FED267BE6
:103B80008DED067BCDF818A00BF10043079311E7EC
:103B9000002308934FF00408209B13F4006F5FD0BC
:103BA000DDE90A1213460B4313D01DA3D3E900230A
:103BB000DDE90601FFF7C4FC002800F0B4801AA379
:103BC000D3E90023DDE90601FFF792FC002800F0AD
:103BD000AA801E9A089B9A4238DDD31A013B1E9395
:103BE00036E04FF00508D7E7FB799F501344D33FE9
:103BF000B3C8608B288AC63F61436F63A787D23FF3
:103C000071A379094F930A401655B5BBB16B0240B9
:103C1000EF39FAFE422EE63F0000000000000000EF
:103C20002D431CEBE2361A3F0000000080842E4139
:103C3000FFFFEF7F0000F83F0000E03F00002C4056
:103C400000002440000018400000F03F00231E93B5
:103C5000209B43F4806320934FF00008CDF8208030
:103C60001F9B984569D2A3EB0809209B13F0020320
:103C70000C9304D0B8F1000F01D04FF00009089B5D
:103C80003BB1DDE90A23DDE90601FFF789FBCDE958
:103C900006010022002350465946FFF729FC002860
:103CA0004ED1209B23F400630493CDF80C901E9B0F
:103CB00002939DED067B8DED007B33463A46294607
:103CC000204600F055F8B8F1000F3FF454AF209BA8
:103CD00013F0200F3CD04FF0450C00F101093346A2
:103CE000024629466046A047089981EAE172A2EBA4
:103CF000E1720523059308F1FF3304930023039336
:103D00000A230293CB0F0193009233464A46294679
:103D10002046FFF76FFD0C9B002B3FF42CAF0246B3
:103D2000DDF87C901EE01E9B002B99D00F9B002B92
:103D300096D01E9B013B1E9392E74FF0000994E73B
:103D4000DDE90601024601F10043CDE90623A8E7BB
:103D50004FF0650CC1E702F10108334629462020E7
:103D6000A0474246D31B4B45F5D3104603E700BF9F
:103D70002DE9F04F2DED028B95B007900A919246F8
:103D80009B46DDE92089229D42464B4640464946F6
:103D9000FFF79CFB002835D14FF0FF326FF4801302
:103DA00040464946FFF7A4FB00283AD14FF0FF32C6
:103DB000B14B40464946FFF7D7FB002840D1AAA3A4
:103DC000D3E9002340464946FFF7CEFB00284DD1FA
:103DD000A7A3D3E9002340464946FFF789FB002803
:103DE00044D10022002340464946FFF781FB0028CA
:103DF0004AD100230B93249B13F4806F00F0B5800D
:103E0000002454E0249B0393239B029303230193F8
:103E10009A4B00935B4652460A990798FFF711FCAC
:103E20001BE1249B0393239B029304230193944B54
:103E300000935B4652460A990798FFF702FC0CE193
:103E4000249B13F0040F0ED08E4B0422249903916F
:103E500023990291019200935B4652460A99079872
:103E6000FFF7EFFBF9E0884B0322EFE7249B049375
:103E7000239B03930295CDE900895B4652460A993C
:103E80000798FFF765FDE8E042464B460020002119
:103E9000FFF74CFA8046894601230B93ABE704F108
:103EA00050036B44302203F8202C013D01341F2CB9
:103EB00001D8092DF3D840464946FFF7E3FA0646F4
:103EC000FFF7BCFA02460B4640464946FFF72EFA7A
:103ED0006E4B03EBC50393ED008B53EC182BFFF7F0
:103EE00039FA02460B46CDE90823FFF7DDFA07460B
:103EF000FFF7B6FA02460B46DDE90801FFF716FAAE
:103F000002460B46CDE908230022614BFFF72CFB4C
:103F100068B301373846FFF7A3FA02460B4651EC67
:103F2000180BFFF7F9FA08B1013600276DBB3046D0
:103F3000FFF784FA02460B4640464946FFF7F6F97A
:103F4000074688460022524BFFF7D2FA00284CD190
:103F500000224F4B38464146FFF706FB002844D16C
:103F600016F0010F41D001363FE0062548E7002258
:103F7000474BDDE90801FFF7BBFA0028D6D117B19E
:103F800017F0010FD2D00137D0E71F2C17D8013D11
:103F9000404BA3FB0723DB08194603EB8303A7EB86
:103FA0004303621C303304F150000DEB000404F8AD
:103FB000203C092F02D90F461446E6E714461F2C71
:103FC0000AD86B1E45B104F150026A44302102F850
:103FD000201C1D460134F2E71F2C06D804F15003C3
:103FE0006B442E2203F8202C01341F2C17D82A4AA8
:103FF00082FB0632F317C3EBA2031A4603EB8303DB
:10400000A6EB4303611C303304F150000DEB0004B8
:1040100004F8203C16460AB10C46E6E70C46249B01
:1040200003F00303012B39D01F2C09D80B9B002B65
:1040300051D004F150036B442D2203F8202C01349D
:10404000249B0393239B029301940CAB00935B4648
:1040500052460A990798FFF7F4FA15B0BDEC028BA7
:10406000BDE8F08FAFF300800000000065CDCD41CA
:104070000000000065CDCDC1FFFFEF7FC49F0010A1
:10408000C89F0010B89F0010C09F001010B700100C
:104090000000E03FCDCCCCCC67666666239BB3B115
:1040A0000B9B1BB9249B13F00C0F12D0239B013BDD
:1040B0002393194606E004F150036B44302203F8C1
:1040C000202C01348C42AFD21F2CF4D9ACE72399B9
:1040D000F8E72399F6E7249B13F0040F07D004F1C7
:1040E00050036B442B2203F8202C0134A8E7249BB7
:1040F00013F0080FA4D004F150036B44202203F8FE
:10410000202C01349CE700BF2DE9F04F8FB0804692
:1041100017460D938946002900F04F83002508E0DB
:104120006C1C3B462A464946C0470D9B01330D9304
:1041300025460D9B1878002800F042832528EFD1F2
:1041400001330D9300261FE046F0010601320D9267
:10415000012318E046F0020601320D92012312E01D
:1041600046F0040601320D9201230CE046F00806E9
:1041700001320D92012306E046F0100601320D9245
:10418000012300E000234BB30D9A1378203B102B42
:10419000F8D801A151F823F06D41001085410010BD
:1041A00085410010794100108541001085410010C3
:1041B00085410010854100108541001085410010A7
:1041C00085410010614100108541001055410010EB
:1041D0008541001085410010494100100A930D9B54
:1041E0001A78A2F13003DBB2092B18D92A2A1BD086
:1041F0000A9B0B930D9B1A782E2A25D00D9A1378C3
:10420000683B122B5CD8DFE803F0495BAC5B3B5B9F
:104210005B5B5B5B5B5B575B5B5B5B5BB1000DA8F8
:10422000FFF7FCF90B90E5E7189B1A1D18921B6825
:10423000002B04DB0B930D9B01330D93DAE746F063
:1042400002065B420B93F6E746F480665A1C0D9219
:104250005A78A2F13003DBB2092B0CD92A2ACDD12E
:10426000189B1A1D18921C6824EAE4730A930D9B8C
:1042700001330D93C2E70DA8FFF7D0F90A90BDE70F
:1042800046F48071531C0D9353786C2B01D00E466D
:1042900016E046F4407602320D9211E046F08001BD
:1042A000531C0D935378682B01D00E4608E046F05E
:1042B000C00602320D9203E046F4807601320D9280
:1042C0000D9B1878672856D82528C0F06C82A0F17D
:1042D0002503422B00F26782DFE813F05A026502E1
:1042E0006502650265026502650265026502650296
:1042F0006502650265026502650265026502650286
:104300006502650265026502650265026502650275
:104310006502650265026502650265028801680141
:104320008801650265026502650265026502650233
:104330006502650265026502650265026502650245
:10434000650271006502650265026502650265022B
:104350006502650265027100AF01710088016801A4
:10436000880146F4007601320D92A9E746F4807682
:1043700001320D92A4E7782800F215826928C0F076
:104380001282A0F16902D2B20123934049F24102A4
:10439000134214D113F0800F40F0DF8113F4806FCB
:1043A00000F00182189B1A1D1892D3F800A00A9BF6
:1043B000002B40F090814FF0FF32534674E16F289C
:1043C0003DD005D858283CD0622803D1022304E010
:1043D000782838D026F010060A23582835D06928C6
:1043E00003D0642801D026F00C0616F4806F01D0AB
:1043F00026F0010669282BD0642829D016F4007F06
:1044000040F0968016F4807F40F0AE8016F0400FAA
:1044100000F0BF80189A111D1891127805960B991B
:1044200004910A99039102930023019300923B4661
:104430002A4649464046FFF7DDF9054629E00823AC
:10444000CBE71023C9E71023C7E746F02006C6E7ED
:1044500016F4007F21D116F4807F42D116F0400F70
:1044600058D0189A111D1891127882EAE271A1EBC6
:10447000E27105960B9804900A9803900293D20F6C
:10448000019200913B462A4649464046FFF7B2F961
:1044900005460D9B01330D934BE6189A073222F027
:1044A000070202F1080118915168126808460029B4
:1044B00013DB08960B9C07940A9C06940493002334
:1044C0000593C90F0291009201903B462A46494646
:1044D0004046FFF7D9F90546DBE7524261EB410060
:1044E000E7E7189A111D1891126882EAE271A1EBB0
:1044F000E27105960B9804900A9803900293D20FEC
:10450000019200913B462A4649464046FFF772F920
:104510000546BEE716F0800F05D0189A111D1891B8
:10452000B2F90020A1E7189A111D189112689CE7B2
:10453000189A073222F0070202F108011891089632
:104540000B9907910A990691002104930591029114
:10455000D2E90023CDE900233B462A46494640469E
:10456000FFF792F9054694E7189A111D18910596E0
:104570000B9904910A990391029300230193136804
:1045800000933B462A4649464046FFF733F9054625
:104590007FE716F0800F04D0189A111D1891128829
:1045A0003CE7189A111D1891126837E746281AD06F
:1045B000189B073323F0070303F1080218920496AF
:1045C0000B9A03920A9A0292D3E90023CDE90023C1
:1045D0003B462A4649464046FFF7CAFB05460D9B27
:1045E00001330D93A5E546F02006E1E7672801D0E9
:1045F000472801D146F40066452801D0472801D15B
:1046000046F02006189B073323F0070303F1080246
:10461000189204960B9A03920A9A0292D3E9002305
:10462000CDE900233B462A4649464046FFF790F92C
:1046300005460D9B01330D937BE516F002061CD059
:1046400001241898031D189305F1010A3B462A46D8
:1046500049460078C047AEB90D9B01330D935546CE
:1046600067E5551C3B4649462020C04723462A465D
:104670005C1C9A45F5D81546E3E70123DDF82CA02C
:104680002A46F5E75246DDF82CA006E0561C3B46CC
:1046900049462020C0472C463246651CA245F5D825
:1046A0009246D9E701330A46197811B1511E002A02
:1046B000F8D1A3EB0A0316F4806B03D00A9A934255
:1046C00028BF134616F0020407D00C940A9E2A460F
:1046D0005D469B4623E00A9A6FE6CDF830B02A4645
:1046E00025460B9C07E002F1010B3B464946202082
:1046F000C04733465A465E1C9C42F4D8DDF830B0C1
:104700002C4633460C940A9E5D469B4607E01E46A7
:104710000AF1010A541C3B464946C04722469AF812
:10472000000020B1002DF3D0731E002EEFD10C9CA1
:1047300015465B461CB90D9B01330D93F9E40B9EA6
:1047400006E0551C3B4649462020C04723462A46E2
:104750005C1C9E42F5D81546EDE746F02106189BF5
:104760001A1D18921B680596082204920A9A039251
:10477000102202920022019200933B462A464946AB
:104780004046FFF737F805460D9B01330D93D0E403
:104790006C1C3B462A4649462520C0470D9B0133E9
:1047A0000D932546C5E46C1C3B462A464946C04746
:1047B0000D9B01330D932546BBE4DFF82080ADE46B
:1047C000BD4208D37A1E3B4649460020C0472846D2
:1047D0000FB0BDE8F08F2A46F5E700BF0D36001098
:1047E0000CB410B584B00A4606AC54F8043B0394EC
:1047F000009401460348FFF787FC04B0BDE8104071
:1048000002B070470536001000B585B002900391E4
:10481000009313464FF0FF3202A90348FFF774FCE0
:1048200005B05DF804FB00BF0F36001000BEFDE7C9
:104830000346094A126842B1074A10680344074A0E
:10484000934206D8044A13607047034A0449116032
:10485000F2E74FF0FF307047186300200000082097
:10486000886E002008B5FFF7E1FF000000B583B0B7
:104870008C4619465AB11446064B01940093634680
:104880000246054800F052F90120FFF7CFFF034B25
:104890001C46F2E7D09F0010E09F0010DC9F001044
:1048A00010B5EFF30583DBB203B100BEFEF718FCD1
:1048B000044C02E054F8043B9847034B9C42F9D364
:1048C00010BD00BFF0980010F898001008B503461E
:1048D00008461B681146984708BD0000F8B5074612
:1048E0000D461646437D13B1002420460CE00368B4
:1048F0001146284698472EE03B7D10E03B68022198
:1049000015489847601C0134B44214DA002CF3DDDA
:104910002B1913F8013C0D2B14BF002301232A5D32
:104920000A2AF0D1002BEED1A042E7DA3B68211A27
:1049300028449847E2E7B04203DA3B68311A28443A
:104940009847002E07DD354415F8013C0D2B14BFA8
:10495000002301233B75F8BD60B7001038B503682C
:10496000BBB105460B4B1C6806E0294651F8042BE9
:104970002046FFF7B3FF24694CB12368002BFAD01F
:10498000054B1B68002BF0D0A342F4D1EDE70023C8
:104990002B6038BD545000201453002038B5054614
:1049A0000C460B68802B05D023685A1C22601C44DF
:1049B000257138BD0846FFF7D1FFF5E708B5FDF7CB
:1049C00067FF074A821841F10003002B03DB05480B
:1049D00004F062FF08BD4FF0FF326FF00043F6E7CE
:1049E00040420F00D817002008B5024804F044FFE9
:1049F00008BD00BFD81700202DE9F04383B006465C
:104A00000D4690461C46FFF7D9FF8146B5F1FF3FA2
:104A100004D044B1174F184B1C6807E0304604F02F
:104A200091FD0546F5E7154FF5E72469BCB123680C
:104A3000002BFAD0124B1B680BB1A342F5D12A46CA
:104A400031462046B847B8F1000FEED00A238DF862
:104A5000073001220DF107012046B847E5E7B9F11B
:104A6000000F03D1284603B0BDE8F083FFF7BCFF79
:104A7000F8E700BFDD48001054500020CD4800107A
:104A800014530020094A136802E003F110021B6965
:104A900043B113688342F8D131B90369136000232D
:104AA0000361704701B11060704700BF545000208F
:104AB00010B5054B1C6800E0246924B16368002B25
:104AC000FAD09847F8E710BD5450002038B5054695
:104AD00004F038FD044601231A4601462846FFF734
:104AE0008BFFFFF7E5FF204638BD0000F0B5A3B00F
:104AF00004460E46FFF762FF05460023019301AF0F
:104B00003346224639460848FFF77EFE04463846BB
:104B1000FFF724FFFFF7CCFF15B9204623B0F0BD07
:104B2000FFF762FFF9E700BF9D4900100FB400B521
:104B300083B004A951F8040B0191FFF7D7FF03B02C
:104B40005DF804EB04B0704770470000014B002291
:104B50001A7070477D6E00204B79FF2B0BD18B793B
:104B60005BB9CB79012B0AD1082A0AD98A78064B7E
:104B70001A700920704700207047002070470020FD
:104B800070470020704700BF7D6E002001207047F5
:104B9000012923D108B59188114B1B78994201D086
:104BA000002008BD5378012B03D0022B0FD000202A
:104BB000F7E7518811F4807F06D0480AC1F34022FC
:104BC00001F07F01FEF73BFA4FF0FF30F6E7642279
:104BD00000210846FEF7D4F90120E2E701207047E2
:104BE0007D6E0020004870472CB8001001290FD1BD
:104BF00008B594465378012B0CD19388072B01D02C
:104C0000002008E0A623044A614601F0F5FB02E01B
:104C100001207047002008BD84B7001001230370F5
:104C20000048704764B7001008B50B68B3F5966F7D
:104C300000D008BD002211464FF0FF30FEF7FFF90B
:104C40000368EFF3108272B6D3E8CFCF0121BCF135
:104C5000000FF9D1C3E84C1FBCF1000FF4D1BFF332
:104C60005F8F426070470000024B1860024B196072
:104C7000704700BF803300208433002008B5FDF763
:104C800007FE0E4A821841F10003002B11DB0C488D
:104C900004F002FE60B100214FF0FF3001F040FA55
:104CA000002001F02DFD0028F5D1054804F0E4FDB9
:104CB00008BD4FF0FF326FF00043E8E740420F00BD
:104CC000386C002038B5124B1B68C3B1104C20461D
:104CD000FFF7B6FF00230F4A137021686268C1E82E
:104CE0008F3F82F31088002400250B4B1878FCF7C7
:104CF000F9FE40B9002400252046294638BD4FF46E
:104D00007A740025F1E7044B1878FCF715FFF3E7F8
:104D10003C6700207F6E00207E6E002008B5024BAD
:104D20001878FCF709FF08BD7E6E002070B584B0CE
:104D3000064614461D46FDF7ABFD221845EB010360
:104D4000002B0BDB9DF8281002910999019108991D
:104D500000913046FDF7D2FB04B070BD4FF0FF323A
:104D60006FF00043EEE7F0B585B005460C461646F9
:104D70001F46FDF74FFB9DF82830029301970096E0
:104D80002A462346FFF7D2FF05B0F0BD10B582B02A
:104D900000211D4804F084FDA8B91C4B1B6883B199
:104DA0001A4C2046FFF74CFF194A1378DBB2012159
:104DB0001170206862680021C0E88F1F82F310889C
:104DC000BBB102B010BD00214FF0FF3001F0A8F9D7
:104DD000002001F06FFC04460B4804F04DFD002C50
:104DE000EFD00C4B1B68002BEBD00B4A1068984798
:104DF000E7E7012300930B46084A4FF47A7000213D
:104E0000FFF7B1FFDDE700BF386C00203C670020F2
:104E10007F6E00208033002084330020C54C0010BA
:104E200010B582B04FF050431C68FDF7F3FAFDF760
:104E3000D5FBA0422DD1244B1B780021084602F05F
:104E400001F9224B1B6853B30120FDF75BF8C0B298
:104E50001F4C20701F49FCF78FFE01212078FCF7C2
:104E600061FE0E20FCF77CFE0446E0B10120FCF759
:104E7000AFFD01461848FDF7A3F8002217490E20A0
:104E8000FCF7AAFE01211648FFF7FCFD204602B000
:104E900010BD144B144AC1211448FFF7E7FC0B481E
:104EA000FDF74CF8D0E70C4A002313605360012251
:104EB00000920F4A4FF47A700021FFF754FFC44369
:104EC000E40F002CE2D0DDE760BD0010386C00205C
:104ED0007E6E00208D4D00103C6700201D4D00109F
:104EE0004012002010A000105CB8001018A00010A4
:104EF000C54C001008B5002001F0C2FB08BD000041
:104F000038B504460D46FFF7F5FF90B3002001F0D9
:104F1000D1FB88B3FDF7BCFC1A4A821841F10003AB
:104F2000002B16DB184804F0B7FC40B3FFF7E2FF94
:104F300018B1002001F0BEFB80B900214FF0FF3016
:104F400001F0EEF86FF002040F4804F095FC2046E3
:104F500038BD4FF0FF326FF00043E3E72A462146A9
:104F6000002001F0B3FB04460028EDD16FF00204ED
:104F7000EAE76FF00204EAE76FF00204E7E76FF098
:104F80000204E4E740420F00386C0020F8B5074601
:104F90000D46FDF77DFC2E4A821841F10003002BDF
:104FA00004DB2C4804F078FC28B9F8BD4FF0FF3240
:104FB0006FF00043F5E7FFF79DFF002845D1264B32
:104FC00000200021C3E90001224804F055FCECE771
:104FD00000214FF0FF3001F0A3F8002001F090FB1A
:104FE000FFF788FF0028EFD0002001F007FCF8B1A0
:104FF000AC42E9DA2E1B002001F000FC864200DC06
:1050000030460028E4D002463919002001F0D4FBD4
:10501000064600214FF0FF3001F082F8002001F039
:105020006FFB3444FDF734FC0B4BC3E90001DFE7B1
:10503000FDF72EFC084A13685268084E9B1942F18E
:10504000000283428A41D3D2BEE70024D0E700BFEA
:1050500040420F00386C00206019002020A107009A
:1050600000487047D8B800100048704784B8001056
:1050700010B50446144B1B786BB18CB9134B40F23E
:1050800009425A80012301335B009BB20F4843F46D
:105090004073038010BD11210B4800F047F8ECE786
:1050A000052C0ED80A4B53F824000023122BEAD803
:1050B000C25C002AE7D00133044921F81320DBB297
:1050C000F4E70020E6E700BF506E002024500020E7
:1050D0006CB8001000B58BB045F24730FDF7A0FF6B
:1050E00003460122092101A89847042801D1002381
:1050F0000EE00A4B0A4A29210A48FFF7B7FBC3F121
:105100000F0228326A4412F8241C074AD154013392
:10511000072BF4DD0BB05DF804FB00BFA4A000106A
:105120000CB90010ACA000106467002008B511B1E4
:105130008C46002208E0104B104A35211048FFF73A
:1051400095FB3733835401320CF1FF3393420FD96F
:105150000F2A0DD853080B49CB5CD14301F0010154
:1051600089000B4103F00F03092BEADC3033E9E738
:105170000023835408BD00BFF8A00010ECB8001055
:10518000ACA000106467002030B400F07F05C309B4
:105190004FEA450C0CEBD01C244C04EB4C1C8CF857
:1051A000020083F001008CF8010000208CF803005D
:1051B000ACF818108CF81B20DBB9EA001C4911442C
:1051C00003EB4500194A02EB4012916003EB4501E5
:1051D000164A02EB41129268002111607DB903EB7F
:1051E0004502124B03EB42135960124ADA6030BC9D
:1051F0007047114901EBC501CCF80810E6E753B937
:105200006A1ED2000D49114403EB4503074A02EB25
:1052100043135960EBE7691E094A02EBC10203EB35
:105220004501024B03EB41135A60E0E71C63002089
:105230008400105000011050800010500C001050DD
:105240000800105008B5038B3F3323F03F03C27EA4
:10525000022A08D008490A68C26013440B60074A52
:10526000934202D808BD5B00F4E7054B054A522182
:105270000548FFF7FBFA00BF20670020FF0F105022
:1052800000A1001058B9001044A1001070B500F042
:105290007F054FEA450C0CEBD0130C4C04EB431488
:1052A000FFF772FF05B970BD218B2046FFF7CAFFDB
:1052B000E27EE36883F0A04383F4801343EA8263D1
:1052C00043F0004362681360EDE700BF1C630020F9
:1052D00008B500F07F035B0003EBD010024B03EB3B
:1052E000401000F01BF908BD1C63002008B520B970
:1052F00001210E20FCF716FC08BD034B034A40F2C7
:1053000097110348FFF7B2FAB4A1001048B9001092
:1053100044A1001008B528B9002211468020FFF7EB
:10532000D7FF08BD034B044A40F2A1110348FFF721
:105330009DFA00BFB4A1001038B9001044A10010BC
:10534000024B4FF48032DA64704700BF00201150E6
:1053500070B548BB064600F0C1F8174C0C23A36794
:10536000FF2216490E20FCF737FC40252A46002173
:10537000134803F0F9FF002229461046FFF786FF85
:10538000002229468020FFF781FF04F06DFA0125F5
:1053900025644FF00053E3640A4BC4F89030304664
:1053A000FFF7CEFF284670BD074B084A40F2631155
:1053B0000748FFF75BFA00BF00001150F10300201F
:1053C0001C63002010D00100B4A100106CB90010C3
:1053D00044A10010044B197021B1044B4FF400326A
:1053E000C3F89020704700BF6D6E00200020115060
:1053F0000B7813F07F0F02D14B78052B00D070474C
:105400004B88DBB2014A1360F9E700BF000011507E
:10541000CA7802F00302012A09D008B50B46898830
:10542000C1F30A019878FFF731FF012008BD002081
:10543000704708B504F018FA08BD000010B530B97F
:10544000084611461A46FFF743FF012010BD034BE3
:10545000034A4FF401710348FFF708FAB4A10010A2
:1054600028B9001044A1001008B511F07F0304D141
:10547000CA090ED10220084A90665B0003EBD113E3
:105480004FF400620021054800EB431004F000FADD
:1054900008BD0120EFE700BF002011501C63002071
:1054A00008B511F07F0300D108BD5B0003EBD113F9
:1054B000044800EB43100022C2706FF4006104F056
:1054C000E7F9F1E71C63002004E011F8012B00F874
:1054D000012B1A46531E002AF7D1704708B54FF02A
:1054E00080530A4A136002F580521360084B9B6890
:1054F00013F0805FFAD04FF480520021054803F08A
:1055000033FF054B09225A6708BD00BF0020024047
:1055100000000240000010500000115070B5044619
:105520000D461646837EABB9A6820023E382012393
:10553000A3762561204604F0B7F920B10B4B4FF458
:105540000032C3F89020204604F09EF950B10123A8
:10555000237770BD81780648FFF7E8FA204604F00B
:1055600073F9E1E7204604F077F9F2E700201150E3
:10557000A4A200100368EFF3108272B6D3E8CFCF75
:105580000121BCF1000FF9D1C3E84C1FBCF1000FA1
:10559000F4D1BFF35F8F42607047000038B5054615
:1055A000002408E0D21A1B4B03EB4213DB682846A9
:1055B00098470134E4B2184B1B782246591CA1428B
:1055C00015DBA342EED9154B1B6813EB4413EDD149
:1055D00040F2252212491348FFF7A8FA4FF0E023C2
:1055E000D3F8F03D13F0010F13D000BE11E00E4CC4
:1055F00054220021204603F0B7FE4FF0FF336360D2
:10560000A360E36023612022FF2104F1140003F072
:10561000ABFE38BD40BA00106C6E0020E81A0020C6
:105620000CBA0010DCA20010B81C002008B5FFF76F
:10563000B5FF00F037FF08BD70B505460C461646AD
:10564000486900F039FF63693246012128469847CE
:1056500070BD00002DE9F04F83B08246481EC0B2F5
:10566000FFF702FD20B1834643780193022B11D04E
:1056700040F2D63262496348FFF758FA4FF0E02310
:10568000D3F8F03D13F0010F00D000BE002003B0AE
:10569000BDE8F08FC279C2F340105B4B197860F31C
:1056A00004111970C2F38012C9B262F34511197066
:1056B0000BF10908BBF802309B447BE098F80330FB
:1056C00098F8002090447DE040F2F1324C494D487A
:1056D000FFF72CFA4FF0E023D3F8F03D13F0010F61
:1056E00000D000BE0020D2E7F31A484A02EB43196B
:1056F000D9F810302A46414650469847082801D923
:1057000085421ED20134E4B2414B1B7826465A1C16
:10571000A2424ADBA342E7D93E4B1B6813EB441974
:10572000E6D140F2FA3236493648FFF7FFF94FF03A
:10573000E023D3F8F03D13F0010F00D000BE0020AD
:10574000A5E73B464F468146012B11D000218B42F5
:1057500024D998F802200A44D2B22B481044007988
:10576000FF280BD12848024414710131C9B2EEE779
:105770003969294A9142E9D1019BE7E740F2194290
:105780001F492048FFF7D2F94FF0E023D3F8F03D4E
:1057900013F0010F00D000BE002078E723464A46F0
:1057A00041461E4801F05AFDC844194B1B7801338D
:1057B0009E4212DCD84520D298F801300B2B3FF4E2
:1057C0007DAF012398F80120042A7FF47DAFABEB75
:1057D0000805ADB200241F4696E74FF485620849DC
:1057E0000848FFF7A3F94FF0E023D3F8F03D13F09A
:1057F000010F00D000BE002049E7012047E700BFAD
:10580000E0B90010DCA20010B81C002040BA001063
:105810006C6E0020E81A002075690010CC1C002076
:1058200070477047002070470020704738B5054624
:105830000C464B881A0AD8B2531E0E2B64D8DFE8E8
:1058400003F0082D4E6363592D63636363636363E1
:105850002200FFF705FC024628B112232146284604
:1058600000F0CAFD51E040F23A422C492C48FFF7C3
:105870005DF94FF0E023D3F8F03D13F0010F00D0B5
:1058800000BE002041E0FFF7ADF9024600283DD000
:1058900043882146284600F0AFFD36E0022A09D0B1
:1058A000FFF7C2FF024698B353882146284600F00E
:1058B000A3FD2AE0FFF7D8FB02460028F4D140F20E
:1058C000614216491648FFF731F94FF0E023D3F84B
:1058D000F03D13F0010F00D000BE002015E0A188BC
:1058E000FFF7C6FB0246A8B103782146284600F020
:1058F00083FD0AE0FFF796FF024668B10378214670
:10590000284600F079FD00E0002038BD0020FCE7CB
:105910000020FAE70020F8E70020F6E7C8B90010F9
:10592000DCA200107047704770477047034B5878EF
:10593000C0B2003818BF0120704700BFB81C00205B
:10594000024B1878C0F38000704700BFB81C0020DD
:10595000024B1878FF3818BF0120704774120020DE
:10596000F8B506460D46FFF7F3FF0746002854D169
:1059700005B354220021374803F0F6FC364B0022D1
:105980001A70364C2046FCF7D9FA354B1C60354C62
:105990002046FCF71DFB143C204602F019F8324B60
:1059A0001C60324B23B13248FFF738F9314B186095
:1059B000002417E04FF4E9722F493048FFF7B6F89A
:1059C0004FF0E023D3F8F03D13F0010F25D000BED7
:1059D00023E0D21A2A4B03EB42135B687BB1984752
:1059E0000134E4B2224B1B782246591CA14216DB3B
:1059F000A342EED91F4B1B6813EB4413EDD14FF4B8
:105A0000F8721D491D48FFF791F84FF0E023D3F8D5
:105A1000F03D13F0010F00D000BE3846F8BD194B21
:105A20001E7029463046FFF793FC074618B13046F2
:105A3000FFF75CFCF1E74FF4FC720F490F48FFF7EA
:105A400075F84FF0E023D3F8F03D13F0010FE4D0E8
:105A500000BEE2E7B81C00206E6E0020B01C0020E3
:105A60000C1D00206C120020101D00201D4C001089
:105A70006C6E0020E81A002030BA0010DCA2001082
:105A800040BA00107412002070B51A4B1E788B7843
:105A900013F0700F0ED10C46174B9978204601F089
:105AA0006DFB0546B0B121463046FFF7B1FC054617
:105AB000284670BD40F20B5210491148FFF736F8E6
:105AC0004FF0E023D3F8F03D13F0010F00D000BEFB
:105AD0000025EDE740F20C5208490948FFF726F887
